{
  "contractName": "NLC",
  "abi": [
    {
      "inputs": [
        {
          "internalType": "address",
          "name": "swapAdmin",
          "type": "address"
        }
      ],
      "stateMutability": "nonpayable",
      "type": "constructor"
    },
    {
      "anonymous": false,
      "inputs": [
        {
          "indexed": true,
          "internalType": "address",
          "name": "owner",
          "type": "address"
        },
        {
          "indexed": true,
          "internalType": "address",
          "name": "spender",
          "type": "address"
        },
        {
          "indexed": false,
          "internalType": "uint256",
          "name": "value",
          "type": "uint256"
        }
      ],
      "name": "Approval",
      "type": "event"
    },
    {
      "anonymous": false,
      "inputs": [
        {
          "indexed": true,
          "internalType": "address",
          "name": "from",
          "type": "address"
        },
        {
          "indexed": true,
          "internalType": "address",
          "name": "to",
          "type": "address"
        },
        {
          "indexed": false,
          "internalType": "uint256",
          "name": "value",
          "type": "uint256"
        }
      ],
      "name": "Transfer",
      "type": "event"
    },
    {
      "inputs": [],
      "name": "name",
      "outputs": [
        {
          "internalType": "string",
          "name": "",
          "type": "string"
        }
      ],
      "stateMutability": "view",
      "type": "function",
      "constant": true
    },
    {
      "inputs": [],
      "name": "symbol",
      "outputs": [
        {
          "internalType": "string",
          "name": "",
          "type": "string"
        }
      ],
      "stateMutability": "view",
      "type": "function",
      "constant": true
    },
    {
      "inputs": [],
      "name": "decimals",
      "outputs": [
        {
          "internalType": "uint8",
          "name": "",
          "type": "uint8"
        }
      ],
      "stateMutability": "view",
      "type": "function",
      "constant": true
    },
    {
      "inputs": [],
      "name": "totalSupply",
      "outputs": [
        {
          "internalType": "uint256",
          "name": "",
          "type": "uint256"
        }
      ],
      "stateMutability": "view",
      "type": "function",
      "constant": true
    },
    {
      "inputs": [
        {
          "internalType": "address",
          "name": "account",
          "type": "address"
        }
      ],
      "name": "balanceOf",
      "outputs": [
        {
          "internalType": "uint256",
          "name": "",
          "type": "uint256"
        }
      ],
      "stateMutability": "view",
      "type": "function",
      "constant": true
    },
    {
      "inputs": [
        {
          "internalType": "address",
          "name": "recipient",
          "type": "address"
        },
        {
          "internalType": "uint256",
          "name": "amount",
          "type": "uint256"
        }
      ],
      "name": "transfer",
      "outputs": [
        {
          "internalType": "bool",
          "name": "",
          "type": "bool"
        }
      ],
      "stateMutability": "nonpayable",
      "type": "function"
    },
    {
      "inputs": [
        {
          "internalType": "address",
          "name": "owner",
          "type": "address"
        },
        {
          "internalType": "address",
          "name": "spender",
          "type": "address"
        }
      ],
      "name": "allowance",
      "outputs": [
        {
          "internalType": "uint256",
          "name": "",
          "type": "uint256"
        }
      ],
      "stateMutability": "view",
      "type": "function",
      "constant": true
    },
    {
      "inputs": [
        {
          "internalType": "address",
          "name": "spender",
          "type": "address"
        },
        {
          "internalType": "uint256",
          "name": "amount",
          "type": "uint256"
        }
      ],
      "name": "approve",
      "outputs": [
        {
          "internalType": "bool",
          "name": "",
          "type": "bool"
        }
      ],
      "stateMutability": "nonpayable",
      "type": "function"
    },
    {
      "inputs": [
        {
          "internalType": "address",
          "name": "sender",
          "type": "address"
        },
        {
          "internalType": "address",
          "name": "recipient",
          "type": "address"
        },
        {
          "internalType": "uint256",
          "name": "amount",
          "type": "uint256"
        }
      ],
      "name": "transferFrom",
      "outputs": [
        {
          "internalType": "bool",
          "name": "",
          "type": "bool"
        }
      ],
      "stateMutability": "nonpayable",
      "type": "function"
    },
    {
      "inputs": [
        {
          "components": [
            {
              "internalType": "address",
              "name": "recipient",
              "type": "address"
            },
            {
              "internalType": "uint256",
              "name": "amount",
              "type": "uint256"
            }
          ],
          "internalType": "struct NLC.TokenTransfer[]",
          "name": "_account",
          "type": "tuple[]"
        }
      ],
      "name": "transferToMultipleAccounts",
      "outputs": [
        {
          "internalType": "bool",
          "name": "",
          "type": "bool"
        }
      ],
      "stateMutability": "nonpayable",
      "type": "function"
    },
    {
      "inputs": [
        {
          "internalType": "address",
          "name": "_immutableTransformer",
          "type": "address"
        }
      ],
      "name": "setLiquidityTransformer",
      "outputs": [],
      "stateMutability": "nonpayable",
      "type": "function"
    },
    {
      "inputs": [
        {
          "internalType": "address",
          "name": "_immutableTransformer",
          "type": "address"
        }
      ],
      "name": "setStakeTransformer",
      "outputs": [],
      "stateMutability": "nonpayable",
      "type": "function"
    },
    {
      "inputs": [],
      "name": "revokeAccess",
      "outputs": [],
      "stateMutability": "nonpayable",
      "type": "function"
    },
    {
      "inputs": [
        {
          "internalType": "uint256",
          "name": "_amount",
          "type": "uint256"
        }
      ],
      "name": "mintSupplyToSwapAdmin",
      "outputs": [],
      "stateMutability": "nonpayable",
      "type": "function"
    },
    {
      "inputs": [
        {
          "internalType": "address",
          "name": "_investorAddress",
          "type": "address"
        },
        {
          "internalType": "uint256",
          "name": "_amount",
          "type": "uint256"
        }
      ],
      "name": "mintSupply",
      "outputs": [],
      "stateMutability": "nonpayable",
      "type": "function"
    },
    {
      "inputs": [
        {
          "internalType": "address",
          "name": "_investorAddress",
          "type": "address"
        },
        {
          "internalType": "uint256",
          "name": "_amount",
          "type": "uint256"
        }
      ],
      "name": "burnSupply",
      "outputs": [],
      "stateMutability": "nonpayable",
      "type": "function"
    },
    {
      "inputs": [
        {
          "internalType": "uint256",
          "name": "amount",
          "type": "uint256"
        }
      ],
      "name": "burn",
      "outputs": [],
      "stateMutability": "nonpayable",
      "type": "function"
    }
  ],
  "bytecode": "0x60c060405260088060006101000a81548160ff021916908360ff160217905550600060095567016f7c1247488000600a553480156200003d57600080fd5b5060405162001e5338038062001e538339818101604052810190620000639190620002ae565b6040518060400160405280600b81526020017f4e6f4c696d6974436f696e00000000000000000000000000000000000000000081525060069080519060200190620000b0929190620001e1565b506040518060400160405280600381526020017f4e4c43000000000000000000000000000000000000000000000000000000000081525060079080519060200190620000fe929190620001e1565b5080600860016101000a81548173ffffffffffffffffffffffffffffffffffffffff021916908373ffffffffffffffffffffffffffffffffffffffff16021790555033600360006101000a81548173ffffffffffffffffffffffffffffffffffffffff021916908373ffffffffffffffffffffffffffffffffffffffff16021790555033600560006101000a81548173ffffffffffffffffffffffffffffffffffffffff021916908373ffffffffffffffffffffffffffffffffffffffff1602179055506360650d0060808181525050636427740060a081815250505062000328565b828054600181600116156101000203166002900490600052602060002090601f01602090048101928262000219576000855562000265565b82601f106200023457805160ff191683800117855562000265565b8280016001018555821562000265579182015b828111156200026457825182559160200191906001019062000247565b5b50905062000274919062000278565b5090565b5b808211156200029357600081600090555060010162000279565b5090565b600081519050620002a8816200030e565b92915050565b600060208284031215620002c157600080fd5b6000620002d18482850162000297565b91505092915050565b6000620002e782620002ee565b9050919050565b600073ffffffffffffffffffffffffffffffffffffffff82169050919050565b6200031981620002da565b81146200032557600080fd5b50565b60805160a051611b0c62000347600039806109b2525050611b0c6000f3fe608060405234801561001057600080fd5b506004361061010b5760003560e01c806364ff5111116100a2578063a9059cbb11610071578063a9059cbb14610292578063aecf8a6d146102c2578063dd62ed3e146102de578063e094ad3b1461030e578063e742806a1461033e5761010b565b806364ff51111461020c57806370a082311461022857806395d89b4114610258578063a45627a0146102765761010b565b8063313ce567116100de578063313ce567146101ac57806342966c68146101ca5780634e4c7d9b146101e65780635feca933146101f05761010b565b806306fdde0314610110578063095ea7b31461012e57806318160ddd1461015e57806323b872dd1461017c575b600080fd5b61011861035a565b604051610125919061187c565b60405180910390f35b6101486004803603810190610143919061153d565b6103fc565b6040516101559190611861565b60405180910390f35b61016661041a565b604051610173919061195e565b60405180910390f35b610196600480360381019061019191906114ee565b610424565b6040516101a39190611861565b60405180910390f35b6101b46104e3565b6040516101c19190611979565b60405180910390f35b6101e460048036038101906101df91906115ba565b6104fa565b005b6101ee610507565b005b61020a60048036038101906102059190611489565b610631565b005b61022660048036038101906102219190611489565b610747565b005b610242600480360381019061023d9190611489565b610836565b60405161024f919061195e565b60405180910390f35b61026061087e565b60405161026d919061187c565b60405180910390f35b610290600480360381019061028b91906115ba565b610920565b005b6102ac60048036038101906102a7919061153d565b610a42565b6040516102b99190611861565b60405180910390f35b6102dc60048036038101906102d7919061153d565b610a60565b005b6102f860048036038101906102f391906114b2565b610afe565b604051610305919061195e565b60405180910390f35b61032860048036038101906103239190611579565b610b85565b6040516103359190611861565b60405180910390f35b6103586004803603810190610353919061153d565b610c38565b005b606060068054600181600116156101000203166002900480601f0160208091040260200160405190810160405280929190818152602001828054600181600116156101000203166002900480156103f25780601f106103c7576101008083540402835291602001916103f2565b820191906000526020600020905b8154815290600101906020018083116103d557829003601f168201915b5050505050905090565b6000610410610409610cd6565b8484610cde565b6001905092915050565b6000600954905090565b60006104cd84610432610cd6565b6104c885600160008a73ffffffffffffffffffffffffffffffffffffffff1673ffffffffffffffffffffffffffffffffffffffff168152602001908152602001600020600061047f610cd6565b73ffffffffffffffffffffffffffffffffffffffff1673ffffffffffffffffffffffffffffffffffffffff16815260200190815260200160002054610e3d90919063ffffffff16565b610cde565b6104d8848484610e5d565b600190509392505050565b6000600860009054906101000a900460ff16905090565b6105043382611061565b50565b3373ffffffffffffffffffffffffffffffffffffffff16600560009054906101000a900473ffffffffffffffffffffffffffffffffffffffff1673ffffffffffffffffffffffffffffffffffffffff1614610597576040517f08c379a000000000000000000000000000000000000000000000000000000000815260040161058e9061191e565b60405180910390fd5b60011515600560149054906101000a900460ff161515146105ed576040517f08c379a00000000000000000000000000000000000000000000000000000000081526004016105e4906118fe565b60405180910390fd5b6000600560006101000a81548173ffffffffffffffffffffffffffffffffffffffff021916908373ffffffffffffffffffffffffffffffffffffffff160217905550565b3373ffffffffffffffffffffffffffffffffffffffff16600360009054906101000a900473ffffffffffffffffffffffffffffffffffffffff1673ffffffffffffffffffffffffffffffffffffffff16146106c1576040517f08c379a00000000000000000000000000000000000000000000000000000000081526004016106b89061191e565b60405180910390fd5b80600260006101000a81548173ffffffffffffffffffffffffffffffffffffffff021916908373ffffffffffffffffffffffffffffffffffffffff1602179055506000600360006101000a81548173ffffffffffffffffffffffffffffffffffffffff021916908373ffffffffffffffffffffffffffffffffffffffff16021790555050565b3373ffffffffffffffffffffffffffffffffffffffff16600560009054906101000a900473ffffffffffffffffffffffffffffffffffffffff1673ffffffffffffffffffffffffffffffffffffffff16146107d7576040517f08c379a00000000000000000000000000000000000000000000000000000000081526004016107ce9061191e565b60405180910390fd5b80600460006101000a81548173ffffffffffffffffffffffffffffffffffffffff021916908373ffffffffffffffffffffffffffffffffffffffff1602179055506001600560146101000a81548160ff02191690831515021790555050565b60008060008373ffffffffffffffffffffffffffffffffffffffff1673ffffffffffffffffffffffffffffffffffffffff168152602001908152602001600020549050919050565b606060078054600181600116156101000203166002900480601f0160208091040260200160405190810160405280929190818152602001828054600181600116156101000203166002900480156109165780601f106108eb57610100808354040283529160200191610916565b820191906000526020600020905b8154815290600101906020018083116108f957829003601f168201915b5050505050905090565b600260009054906101000a900473ffffffffffffffffffffffffffffffffffffffff1673ffffffffffffffffffffffffffffffffffffffff163373ffffffffffffffffffffffffffffffffffffffff16146109b0576040517f08c379a00000000000000000000000000000000000000000000000000000000081526004016109a7906118be565b60405180910390fd5b7f0000000000000000000000000000000000000000000000000000000000000000421115610a13576040517f08c379a0000000000000000000000000000000000000000000000000000000008152600401610a0a9061189e565b60405180910390fd5b610a3f600860019054906101000a900473ffffffffffffffffffffffffffffffffffffffff16826111b3565b50565b6000610a56610a4f610cd6565b8484610e5d565b6001905092915050565b600460009054906101000a900473ffffffffffffffffffffffffffffffffffffffff1673ffffffffffffffffffffffffffffffffffffffff163373ffffffffffffffffffffffffffffffffffffffff1614610af0576040517f08c379a0000000000000000000000000000000000000000000000000000000008152600401610ae7906118be565b60405180910390fd5b610afa8282611061565b5050565b6000600160008473ffffffffffffffffffffffffffffffffffffffff1673ffffffffffffffffffffffffffffffffffffffff16815260200190815260200160002060008373ffffffffffffffffffffffffffffffffffffffff1673ffffffffffffffffffffffffffffffffffffffff16815260200190815260200160002054905092915050565b6000600a82511115610bcc576040517f08c379a0000000000000000000000000000000000000000000000000000000008152600401610bc39061193e565b60405180910390fd5b60005b82518160ff161015610c2e57610c21610be6610cd6565b848360ff1681518110610bf557fe5b602002602001015160000151858460ff1681518110610c1057fe5b602002602001015160200151610e5d565b8080600101915050610bcf565b5060019050919050565b600460009054906101000a900473ffffffffffffffffffffffffffffffffffffffff1673ffffffffffffffffffffffffffffffffffffffff163373ffffffffffffffffffffffffffffffffffffffff1614610cc8576040517f08c379a0000000000000000000000000000000000000000000000000000000008152600401610cbf906118be565b60405180910390fd5b610cd282826111b3565b5050565b600033905090565b600073ffffffffffffffffffffffffffffffffffffffff168373ffffffffffffffffffffffffffffffffffffffff161415610d1857600080fd5b600073ffffffffffffffffffffffffffffffffffffffff168273ffffffffffffffffffffffffffffffffffffffff161415610d5257600080fd5b80600160008573ffffffffffffffffffffffffffffffffffffffff1673ffffffffffffffffffffffffffffffffffffffff16815260200190815260200160002060008473ffffffffffffffffffffffffffffffffffffffff1673ffffffffffffffffffffffffffffffffffffffff168152602001908152602001600020819055508173ffffffffffffffffffffffffffffffffffffffff168373ffffffffffffffffffffffffffffffffffffffff167f8c5be1e5ebec7d5bd14f71427d1e84f3dd0314c0f7b2291e5b200ac8c7c3b92583604051610e30919061195e565b60405180910390a3505050565b600082821115610e4c57600080fd5b600082840390508091505092915050565b600073ffffffffffffffffffffffffffffffffffffffff168373ffffffffffffffffffffffffffffffffffffffff161415610e9757600080fd5b600073ffffffffffffffffffffffffffffffffffffffff168273ffffffffffffffffffffffffffffffffffffffff161415610ed157600080fd5b610f22816000808673ffffffffffffffffffffffffffffffffffffffff1673ffffffffffffffffffffffffffffffffffffffff16815260200190815260200160002054610e3d90919063ffffffff16565b6000808573ffffffffffffffffffffffffffffffffffffffff1673ffffffffffffffffffffffffffffffffffffffff16815260200190815260200160002081905550610fb5816000808573ffffffffffffffffffffffffffffffffffffffff1673ffffffffffffffffffffffffffffffffffffffff1681526020019081526020016000205461135e90919063ffffffff16565b6000808473ffffffffffffffffffffffffffffffffffffffff1673ffffffffffffffffffffffffffffffffffffffff168152602001908152602001600020819055508173ffffffffffffffffffffffffffffffffffffffff168373ffffffffffffffffffffffffffffffffffffffff167fddf252ad1be2c89b69c2b068fc378daa952ba7f163c4a11628f55a4df523b3ef83604051611054919061195e565b60405180910390a3505050565b600073ffffffffffffffffffffffffffffffffffffffff168273ffffffffffffffffffffffffffffffffffffffff16141561109b57600080fd5b6110ec816000808573ffffffffffffffffffffffffffffffffffffffff1673ffffffffffffffffffffffffffffffffffffffff16815260200190815260200160002054610e3d90919063ffffffff16565b6000808473ffffffffffffffffffffffffffffffffffffffff1673ffffffffffffffffffffffffffffffffffffffff1681526020019081526020016000208190555061114381600954610e3d90919063ffffffff16565b600981905550600073ffffffffffffffffffffffffffffffffffffffff168273ffffffffffffffffffffffffffffffffffffffff167fddf252ad1be2c89b69c2b068fc378daa952ba7f163c4a11628f55a4df523b3ef836040516111a7919061195e565b60405180910390a35050565b600073ffffffffffffffffffffffffffffffffffffffff168273ffffffffffffffffffffffffffffffffffffffff1614156111ed57600080fd5b600a546112058260095461135e90919063ffffffff16565b1115611246576040517f08c379a000000000000000000000000000000000000000000000000000000000815260040161123d906118de565b60405180910390fd5b61125b8160095461135e90919063ffffffff16565b6009819055506112b2816000808573ffffffffffffffffffffffffffffffffffffffff1673ffffffffffffffffffffffffffffffffffffffff1681526020019081526020016000205461135e90919063ffffffff16565b6000808473ffffffffffffffffffffffffffffffffffffffff1673ffffffffffffffffffffffffffffffffffffffff168152602001908152602001600020819055508173ffffffffffffffffffffffffffffffffffffffff16600073ffffffffffffffffffffffffffffffffffffffff167fddf252ad1be2c89b69c2b068fc378daa952ba7f163c4a11628f55a4df523b3ef83604051611352919061195e565b60405180910390a35050565b60008082840190508381101561137357600080fd5b8091505092915050565b600061139061138b846119c5565b611994565b905080838252602082019050828560408602820111156113af57600080fd5b60005b858110156113df57816113c58882611428565b8452602084019350604083019250506001810190506113b2565b5050509392505050565b6000813590506113f881611aa8565b92915050565b600082601f83011261140f57600080fd5b813561141f84826020860161137d565b91505092915050565b60006040828403121561143a57600080fd5b6114446040611994565b90506000611454848285016113e9565b600083015250602061146884828501611474565b60208301525092915050565b60008135905061148381611abf565b92915050565b60006020828403121561149b57600080fd5b60006114a9848285016113e9565b91505092915050565b600080604083850312156114c557600080fd5b60006114d3858286016113e9565b92505060206114e4858286016113e9565b9150509250929050565b60008060006060848603121561150357600080fd5b6000611511868287016113e9565b9350506020611522868287016113e9565b925050604061153386828701611474565b9150509250925092565b6000806040838503121561155057600080fd5b600061155e858286016113e9565b925050602061156f85828601611474565b9150509250929050565b60006020828403121561158b57600080fd5b600082013567ffffffffffffffff8111156115a557600080fd5b6115b1848285016113fe565b91505092915050565b6000602082840312156115cc57600080fd5b60006115da84828501611474565b91505092915050565b6115ec81611a1f565b82525050565b60006115fd826119f1565b61160781856119fc565b9350611617818560208601611a62565b61162081611a97565b840191505092915050565b60006116386020836119fc565b91507f4e4c433a20416363657373206973207265766f6b656420666f722041646d696e6000830152602082019050919050565b60006116786016836119fc565b91507f4e4c433a2077726f6e67207472616e73666f726d6572000000000000000000006000830152602082019050919050565b60006116b8602d836119fc565b91507f4e4c433a206d696e7420616d6f756e742065786365656473206d6178696d756d60008301527f20737570706c79206c696d6974000000000000000000000000000000000000006020830152604082019050919050565b600061171e602c836119fc565b91507f4e4c433a20616363657373206973206e6f7420676976656e20746f207374616b60008301527f696e6720636f6e747261637400000000000000000000000000000000000000006020830152604082019050919050565b60006117846018836119fc565b91507f4e4c433a207472616e73666f726d657220646566696e656400000000000000006000830152602082019050919050565b60006117c46041836119fc565b91507f4e4c433a206d6f7265207468616e203130207472616e7366657273206172652060008301527f6e6f7420616c6c6f77656420696e2073696e676c65207472616e73616374696f60208301527f6e000000000000000000000000000000000000000000000000000000000000006040830152606082019050919050565b61184c81611a4b565b82525050565b61185b81611a55565b82525050565b600060208201905061187660008301846115e3565b92915050565b6000602082019050818103600083015261189681846115f2565b905092915050565b600060208201905081810360008301526118b78161162b565b9050919050565b600060208201905081810360008301526118d78161166b565b9050919050565b600060208201905081810360008301526118f7816116ab565b9050919050565b6000602082019050818103600083015261191781611711565b9050919050565b6000602082019050818103600083015261193781611777565b9050919050565b60006020820190508181036000830152611957816117b7565b9050919050565b60006020820190506119736000830184611843565b92915050565b600060208201905061198e6000830184611852565b92915050565b6000604051905081810181811067ffffffffffffffff821117156119bb576119ba611a95565b5b8060405250919050565b600067ffffffffffffffff8211156119e0576119df611a95565b5b602082029050602081019050919050565b600081519050919050565b600082825260208201905092915050565b6000611a1882611a2b565b9050919050565b60008115159050919050565b600073ffffffffffffffffffffffffffffffffffffffff82169050919050565b6000819050919050565b600060ff82169050919050565b60005b83811015611a80578082015181840152602081019050611a65565b83811115611a8f576000848401525b50505050565bfe5b6000601f19601f8301169050919050565b611ab181611a0d565b8114611abc57600080fd5b50565b611ac881611a4b565b8114611ad357600080fd5b5056fea26469706673582212206d11a17c0db33c7231ce1b5f4585c1053b29884f4fd9af55a93f27d6d168f90264736f6c63430007060033",
  "immutableReferences": {
    "115": [
      {
        "length": 32,
        "start": 2482
      }
    ]
  },
  "source": "// SPDX-License-Identifier: MIT\r\n\r\npragma solidity =0.7.6;\r\n\r\npragma abicoder v2;\r\n\r\nimport \"./Context.sol\";\r\n\r\ncontract NLC is Context {\r\n\r\n    using SafeMath for uint256;\r\n\r\n    mapping (address => uint256) private _balances;\r\n    mapping (address => mapping (address => uint256)) private _allowances;\r\n\r\n    address private _LIQUIDITY_TRANSFORMER;\r\n    address private _liquidityGateKeeper;  \r\n\r\n    address private _STAKE_TRANSFORMER;\r\n    address private _stakeGateKeeper;\r\n    bool private _stakeAccess;\r\n\r\n    uint256 immutable LAUNCH_TIME;\r\n    uint256 immutable Revoke_Admin_Mint_Access_Time;\r\n\r\n    struct TokenTransfer {\r\n        address recipient;\r\n        uint256 amount;\r\n    }\r\n\r\n    /**\r\n     * @dev initial private\r\n     */\r\n    string private _name;\r\n    string private _symbol;\r\n    uint8 private _decimal = 8;\r\n    address private _swapAdmin;\r\n\r\n    /**\r\n     * @dev Initial supply \r\n     */\r\n    uint256 private _totalSupply = 0;\r\n\r\n    /**\r\n     * @dev Maximum supply \r\n     */\r\n    uint256 private maxSupply = 103437734400000000;\r\n\r\n    event Transfer(\r\n        address indexed from,\r\n        address indexed to,\r\n        uint256 value\r\n    );\r\n\r\n    event Approval(\r\n        address indexed owner,\r\n        address indexed spender,\r\n        uint256 value\r\n    );\r\n\r\n    constructor (address swapAdmin) {\r\n        _name = \"NoLimitCoin\";\r\n        _symbol = \"NLC\";\r\n        _swapAdmin = swapAdmin;\r\n        _liquidityGateKeeper = msg.sender;\r\n        _stakeGateKeeper = msg.sender; \r\n        LAUNCH_TIME = 1617235200; //(1st April 2021 @00:00)\r\n        Revoke_Admin_Mint_Access_Time = 1680307200; //(1st April 2023 @00:00)\r\n    }\r\n\r\n    /**\r\n     * @dev Returns the name of the token.\r\n     */\r\n    function name() public view returns (string memory) {\r\n        return _name;\r\n    }\r\n\r\n    /**\r\n     * @dev Returns the symbol of the token.\r\n     */\r\n    function symbol() public view returns (string memory) {\r\n        return _symbol;\r\n    }\r\n\r\n    /**\r\n     * @dev Returns the decimals of the token.\r\n     */\r\n    function decimals() public view returns (uint8) {\r\n        return _decimal;\r\n    }\r\n\r\n    /**\r\n     * @dev Returns the total supply of the token.\r\n     */\r\n    function totalSupply() public view returns (uint256) {\r\n        return _totalSupply;\r\n    }\r\n\r\n    /**\r\n     * @dev Returns the token balance of specific address.\r\n     */\r\n    function balanceOf(address account) public view returns (uint256) {\r\n        return _balances[account];\r\n    }\r\n\r\n    /**\r\n     * @dev Allows to transfer tokens \r\n     */\r\n    function transfer(\r\n        address recipient,\r\n        uint256 amount\r\n    )\r\n        public\r\n        returns (bool)\r\n    {\r\n        _transfer(\r\n            _msgSender(),\r\n            recipient,\r\n            amount\r\n        );\r\n\r\n        return true;\r\n    }\r\n\r\n    /**\r\n     * @dev Returns approved balance to be spent by another address\r\n     * by using transferFrom method\r\n     */\r\n    function allowance(\r\n        address owner,\r\n        address spender\r\n    )\r\n        public\r\n        view\r\n        returns (uint256)\r\n    {\r\n        return _allowances[owner][spender];\r\n    }\r\n\r\n    /**\r\n     * @dev Sets the token allowance to another spender\r\n     */\r\n    function approve(\r\n        address spender,\r\n        uint256 amount\r\n    )\r\n        public\r\n        returns (bool)\r\n    {\r\n        _approve(\r\n            _msgSender(),\r\n            spender,\r\n            amount\r\n        );\r\n\r\n        return true;\r\n    }\r\n\r\n    /**\r\n     * @dev Allows to transfer tokens on senders behalf\r\n     * based on allowance approved for the executer\r\n     */\r\n    function transferFrom(\r\n        address sender,\r\n        address recipient,\r\n        uint256 amount\r\n    )\r\n        public\r\n        returns (bool)\r\n    {\r\n        _approve(sender,\r\n            _msgSender(), _allowances[sender][_msgSender()].sub(\r\n                amount\r\n            )\r\n        );\r\n\r\n        _transfer(\r\n            sender,\r\n            recipient,\r\n            amount\r\n        );\r\n        return true;\r\n    }\r\n\r\n    /**\r\n     * @dev Allows to transfer tokens to multiple accounts\r\n     */\r\n    function transferToMultipleAccounts(\r\n        TokenTransfer[] memory _account \r\n    )\r\n        public\r\n        returns (bool)\r\n    {   \r\n        require(\r\n            _account.length <= 10, \r\n            'NLC: more than 10 transfers are not allowed in single transaction'\r\n        );\r\n\r\n        for (uint8 _i = 0; _i < _account.length; _i++) {\r\n\r\n            _transfer(\r\n                _msgSender(),\r\n                _account[_i].recipient,\r\n                _account[_i].amount\r\n            );\r\n\r\n        }\r\n\r\n        return true;\r\n    }\r\n\r\n    /**\r\n     * @dev Moves tokens `amount` from `sender` to `recipient`.\r\n     *\r\n     * Emits a {Transfer} event.\r\n     * Requirements:\r\n     *\r\n     * - `sender` cannot be the zero address.\r\n     * - `recipient` cannot be the zero address.\r\n     * - `sender` must have a balance of at least `amount`.\r\n     */\r\n    function _transfer(\r\n        address sender,\r\n        address recipient,\r\n        uint256 amount\r\n    )\r\n        internal\r\n        virtual\r\n    {\r\n        require(\r\n            sender != address(0x0)\r\n        );\r\n\r\n        require(\r\n            recipient != address(0x0)\r\n        );\r\n\r\n        _balances[sender] =\r\n        _balances[sender].sub(amount);\r\n\r\n        _balances[recipient] =\r\n        _balances[recipient].add(amount);\r\n\r\n        emit Transfer(\r\n            sender,\r\n            recipient,\r\n            amount\r\n        );\r\n    }\r\n\r\n    /** @dev Creates `amount` tokens and assigns them to `account`, increasing\r\n     * the total supply.\r\n     *\r\n     * Emits a {Transfer} event with `from` set to the zero address.\r\n     * Requirements:\r\n     *\r\n     * - `to` cannot be the zero address.\r\n     */\r\n    function _mint(\r\n        address account,\r\n        uint256 amount\r\n    )\r\n        internal\r\n        virtual\r\n    {\r\n        require(\r\n            account != address(0x0)\r\n        );\r\n\r\n        require(\r\n            _totalSupply.add(amount) <= maxSupply,\r\n            'NLC: mint amount exceeds maximum supply limit'\r\n        );\r\n\r\n        _totalSupply =\r\n        _totalSupply.add(amount);\r\n\r\n        _balances[account] =\r\n        _balances[account].add(amount);\r\n\r\n        emit Transfer(\r\n            address(0x0),\r\n            account,\r\n            amount\r\n        );\r\n    }\r\n\r\n\r\n    /**\r\n     * @dev Destroys `amount` tokens from `account`, reducing the\r\n     * total supply.\r\n     *\r\n     * Emits a {Transfer} event with `to` set to the zero address.\r\n     *\r\n     * Requirements:\r\n     *\r\n     * - `account` cannot be the zero address.\r\n     * - `account` must have at least `amount` tokens.\r\n     */\r\n    function _burn(\r\n        address account,\r\n        uint256 amount\r\n    )\r\n        internal\r\n        virtual\r\n    {\r\n        require(\r\n            account != address(0x0)\r\n        );\r\n\r\n        _balances[account] =\r\n        _balances[account].sub(amount);\r\n\r\n        _totalSupply =\r\n        _totalSupply.sub(amount);\r\n\r\n        emit Transfer(\r\n            account,\r\n            address(0x0),\r\n            amount\r\n        );\r\n    }\r\n\r\n    /**\r\n     * @dev Sets `amount` as the allowance of `spender` over the `owner`s tokens.\r\n     * Emits an {Approval} event.\r\n     *\r\n     * Requirements:\r\n     *\r\n     * - `owner` cannot be the zero address.\r\n     * - `spender` cannot be the zero address.\r\n     */\r\n    function _approve(\r\n        address owner,\r\n        address spender,\r\n        uint256 amount\r\n    )\r\n        internal\r\n        virtual\r\n    {\r\n        require(\r\n            owner != address(0x0)\r\n        );\r\n\r\n        require(\r\n            spender != address(0x0)\r\n        );\r\n\r\n        _allowances[owner][spender] = amount;\r\n\r\n        emit Approval(\r\n            owner,\r\n            spender,\r\n            amount\r\n        );\r\n    }\r\n\r\n    /**\r\n     * @notice ability to define liquidity transformer address\r\n     * @dev this method renounce _liquidityGateKeeper access\r\n     * @param _immutableTransformer contract address\r\n     */\r\n    function setLiquidityTransformer(\r\n        address _immutableTransformer\r\n    )\r\n        external\r\n    {\r\n        require(\r\n            _liquidityGateKeeper == msg.sender,\r\n            'NLC: transformer defined'\r\n        );\r\n        _LIQUIDITY_TRANSFORMER = _immutableTransformer;\r\n        _liquidityGateKeeper = address(0x0);\r\n    }\r\n\r\n    /**\r\n     * @notice ability to define stake transformer contract\r\n     * @param _immutableTransformer contract address\r\n     */\r\n    function setStakeTransformer(\r\n        address _immutableTransformer\r\n    )\r\n        external\r\n    {\r\n        require(\r\n            _stakeGateKeeper == msg.sender,\r\n            'NLC: transformer defined'\r\n        );\r\n\r\n        _STAKE_TRANSFORMER = _immutableTransformer;\r\n        _stakeAccess = true;\r\n    }\r\n\r\n    /**\r\n     * @notice ability to renounce _stakeGateKeeper access \r\n     * after giving access to staking contract\r\n     */\r\n    function revokeAccess()\r\n        external\r\n    {\r\n        require(\r\n            _stakeGateKeeper == msg.sender,\r\n            'NLC: transformer defined'\r\n        ); \r\n\r\n        require(\r\n            _stakeAccess == true,\r\n            'NLC: access is not given to staking contract'\r\n        ); \r\n\r\n        _stakeGateKeeper = address(0x0);  \r\n    }    \r\n\r\n    /**\r\n     * @notice allows liquidityTransformer to mint supply to swap admin's account \r\n     * @dev executed from liquidityTransformer upon NLC2 transfer\r\n     * and payout to contributors by swap admin\r\n     * @param _amount of tokens to mint for _investorAddress\r\n     */\r\n    function mintSupplyToSwapAdmin(\r\n        uint256 _amount\r\n    )\r\n        external\r\n    {\r\n        require(\r\n            (msg.sender == _LIQUIDITY_TRANSFORMER),\r\n            'NLC: wrong transformer'\r\n        );\r\n\r\n        require(\r\n            (block.timestamp <= Revoke_Admin_Mint_Access_Time),\r\n            'NLC: Access is revoked for Admin'\r\n        );\r\n\r\n        _mint(\r\n            _swapAdmin,\r\n            _amount\r\n        );\r\n    }\r\n\r\n    /**\r\n     * @notice allows stakeTransformer to mint supply\r\n     * @dev executed from stakeTransformer to payout investors\r\n     * @param _investorAddress address for minting NLCtokens\r\n     * @param _amount of tokens to mint for _investorAddress\r\n     */\r\n    function mintSupply(\r\n        address _investorAddress,\r\n        uint256 _amount\r\n    )\r\n        external\r\n    {\r\n        require(\r\n            (msg.sender == _STAKE_TRANSFORMER),\r\n            'NLC: wrong transformer'\r\n        );\r\n\r\n        _mint(\r\n            _investorAddress,\r\n            _amount\r\n        );\r\n    }\r\n\r\n    /**\r\n     * @notice allows stakeTransformer to burn supply\r\n     * @dev executed from stakeTransformer upon NLC stake\r\n     * @param _investorAddress address for burning NLC tokens\r\n     * @param _amount of tokens to burn for _investorAddress\r\n     */\r\n    function burnSupply(\r\n        address _investorAddress,\r\n        uint256 _amount\r\n    )\r\n        external\r\n    {\r\n        require(\r\n            msg.sender == _STAKE_TRANSFORMER ,\r\n            'NLC: wrong transformer'\r\n        );\r\n\r\n        _burn(\r\n            _investorAddress,\r\n            _amount\r\n        );\r\n    }\r\n\r\n    /**\r\n     * @dev Allows to burn tokens if token sender\r\n     * wants to reduce totalSupply() of the token\r\n     */\r\n    function burn(\r\n        uint256 amount\r\n    )\r\n        external\r\n    {\r\n        _burn(msg.sender, amount);\r\n    }\r\n    \r\n}\r\n",
  "sourcePath": "C:/Users/Dhaval/eth/NLC/src/contracts/NLC.sol",
  "compiler": {
    "name": "solc",
    "version": "0.7.6+commit.7338295f.Emscripten.clang"
  },
  "schemaVersion": "3.3.3",
  "updatedAt": "2021-03-09T04:07:27.859Z",
  "networkType": "ethereum",
  "devdoc": {
    "kind": "dev",
    "methods": {
      "allowance(address,address)": {
        "details": "Returns approved balance to be spent by another address by using transferFrom method"
      },
      "approve(address,uint256)": {
        "details": "Sets the token allowance to another spender"
      },
      "balanceOf(address)": {
        "details": "Returns the token balance of specific address."
      },
      "burn(uint256)": {
        "details": "Allows to burn tokens if token sender wants to reduce totalSupply() of the token"
      },
      "burnSupply(address,uint256)": {
        "details": "executed from stakeTransformer upon NLC stake",
        "params": {
          "_amount": "of tokens to burn for _investorAddress",
          "_investorAddress": "address for burning NLC tokens"
        }
      },
      "decimals()": {
        "details": "Returns the decimals of the token."
      },
      "mintSupply(address,uint256)": {
        "details": "executed from stakeTransformer to payout investors",
        "params": {
          "_amount": "of tokens to mint for _investorAddress",
          "_investorAddress": "address for minting NLCtokens"
        }
      },
      "mintSupplyToSwapAdmin(uint256)": {
        "details": "executed from liquidityTransformer upon NLC2 transfer and payout to contributors by swap admin",
        "params": {
          "_amount": "of tokens to mint for _investorAddress"
        }
      },
      "name()": {
        "details": "Returns the name of the token."
      },
      "setLiquidityTransformer(address)": {
        "details": "this method renounce _liquidityGateKeeper access",
        "params": {
          "_immutableTransformer": "contract address"
        }
      },
      "setStakeTransformer(address)": {
        "params": {
          "_immutableTransformer": "contract address"
        }
      },
      "symbol()": {
        "details": "Returns the symbol of the token."
      },
      "totalSupply()": {
        "details": "Returns the total supply of the token."
      },
      "transfer(address,uint256)": {
        "details": "Allows to transfer tokens "
      },
      "transferFrom(address,address,uint256)": {
        "details": "Allows to transfer tokens on senders behalf based on allowance approved for the executer"
      },
      "transferToMultipleAccounts((address,uint256)[])": {
        "details": "Allows to transfer tokens to multiple accounts"
      }
    },
    "stateVariables": {
      "_name": {
        "details": "initial private"
      },
      "_totalSupply": {
        "details": "Initial supply "
      },
      "maxSupply": {
        "details": "Maximum supply "
      }
    },
    "version": 1
  },
  "userdoc": {
    "kind": "user",
    "methods": {
      "burnSupply(address,uint256)": {
        "notice": "allows stakeTransformer to burn supply"
      },
      "mintSupply(address,uint256)": {
        "notice": "allows stakeTransformer to mint supply"
      },
      "mintSupplyToSwapAdmin(uint256)": {
        "notice": "allows liquidityTransformer to mint supply to swap admin's account "
      },
      "revokeAccess()": {
        "notice": "ability to renounce _stakeGateKeeper access  after giving access to staking contract"
      },
      "setLiquidityTransformer(address)": {
        "notice": "ability to define liquidity transformer address"
      },
      "setStakeTransformer(address)": {
        "notice": "ability to define stake transformer contract"
      }
    },
    "version": 1
  }
}