{
  "contractName": "NLC",
  "abi": [
    {
      "inputs": [
        {
          "internalType": "address",
          "name": "_own",
          "type": "address"
        }
      ],
      "stateMutability": "nonpayable",
      "type": "constructor"
    },
    {
      "anonymous": false,
      "inputs": [
        {
          "indexed": true,
          "internalType": "address",
          "name": "holder",
          "type": "address"
        },
        {
          "indexed": true,
          "internalType": "address",
          "name": "spender",
          "type": "address"
        },
        {
          "indexed": false,
          "internalType": "uint256",
          "name": "value",
          "type": "uint256"
        }
      ],
      "name": "Approval",
      "type": "event"
    },
    {
      "anonymous": false,
      "inputs": [
        {
          "indexed": true,
          "internalType": "address",
          "name": "from",
          "type": "address"
        },
        {
          "indexed": true,
          "internalType": "address",
          "name": "to",
          "type": "address"
        },
        {
          "indexed": false,
          "internalType": "uint256",
          "name": "value",
          "type": "uint256"
        }
      ],
      "name": "Transfer",
      "type": "event"
    },
    {
      "inputs": [],
      "name": "name",
      "outputs": [
        {
          "internalType": "string",
          "name": "",
          "type": "string"
        }
      ],
      "stateMutability": "view",
      "type": "function"
    },
    {
      "inputs": [],
      "name": "symbol",
      "outputs": [
        {
          "internalType": "string",
          "name": "",
          "type": "string"
        }
      ],
      "stateMutability": "view",
      "type": "function"
    },
    {
      "inputs": [],
      "name": "decimals",
      "outputs": [
        {
          "internalType": "uint8",
          "name": "",
          "type": "uint8"
        }
      ],
      "stateMutability": "pure",
      "type": "function"
    },
    {
      "inputs": [],
      "name": "getOwner",
      "outputs": [
        {
          "internalType": "address",
          "name": "",
          "type": "address"
        }
      ],
      "stateMutability": "view",
      "type": "function"
    },
    {
      "inputs": [],
      "name": "totalSupply",
      "outputs": [
        {
          "internalType": "uint256",
          "name": "",
          "type": "uint256"
        }
      ],
      "stateMutability": "view",
      "type": "function"
    },
    {
      "inputs": [
        {
          "internalType": "address",
          "name": "_holder",
          "type": "address"
        }
      ],
      "name": "balanceOf",
      "outputs": [
        {
          "internalType": "uint256",
          "name": "",
          "type": "uint256"
        }
      ],
      "stateMutability": "view",
      "type": "function"
    },
    {
      "inputs": [
        {
          "internalType": "address",
          "name": "recipient",
          "type": "address"
        },
        {
          "internalType": "uint256",
          "name": "amount",
          "type": "uint256"
        }
      ],
      "name": "transfer",
      "outputs": [
        {
          "internalType": "bool",
          "name": "",
          "type": "bool"
        }
      ],
      "stateMutability": "nonpayable",
      "type": "function"
    },
    {
      "inputs": [
        {
          "internalType": "address",
          "name": "holder",
          "type": "address"
        },
        {
          "internalType": "address",
          "name": "spender",
          "type": "address"
        }
      ],
      "name": "allowance",
      "outputs": [
        {
          "internalType": "uint256",
          "name": "",
          "type": "uint256"
        }
      ],
      "stateMutability": "view",
      "type": "function"
    },
    {
      "inputs": [
        {
          "internalType": "address",
          "name": "spender",
          "type": "address"
        },
        {
          "internalType": "uint256",
          "name": "amount",
          "type": "uint256"
        }
      ],
      "name": "approve",
      "outputs": [
        {
          "internalType": "bool",
          "name": "",
          "type": "bool"
        }
      ],
      "stateMutability": "nonpayable",
      "type": "function"
    },
    {
      "inputs": [
        {
          "internalType": "address",
          "name": "sender",
          "type": "address"
        },
        {
          "internalType": "address",
          "name": "recipient",
          "type": "address"
        },
        {
          "internalType": "uint256",
          "name": "amount",
          "type": "uint256"
        }
      ],
      "name": "transferFrom",
      "outputs": [
        {
          "internalType": "bool",
          "name": "",
          "type": "bool"
        }
      ],
      "stateMutability": "nonpayable",
      "type": "function"
    },
    {
      "inputs": [
        {
          "internalType": "uint256",
          "name": "_amount",
          "type": "uint256"
        }
      ],
      "name": "burnSupply",
      "outputs": [
        {
          "internalType": "bool",
          "name": "",
          "type": "bool"
        }
      ],
      "stateMutability": "nonpayable",
      "type": "function"
    }
  ],
  "bytecode": "0x6080604052670186cc6acd4b00006005553480156200001d57600080fd5b50604051620010f3380380620010f3833981810160405260208110156200004357600080fd5b81019080805190602001909291905050506040518060400160405280600b81526020017f4e6f4c696d6974436f696e00000000000000000000000000000000000000000081525060029080519060200190620000a192919062000229565b506040518060400160405280600381526020017f4e4c43000000000000000000000000000000000000000000000000000000000081525060039080519060200190620000ef92919062000229565b5080600460006101000a81548173ffffffffffffffffffffffffffffffffffffffff021916908373ffffffffffffffffffffffffffffffffffffffff160217905550600554600080600460009054906101000a900473ffffffffffffffffffffffffffffffffffffffff1673ffffffffffffffffffffffffffffffffffffffff1673ffffffffffffffffffffffffffffffffffffffff16815260200190815260200160002081905550600460009054906101000a900473ffffffffffffffffffffffffffffffffffffffff1673ffffffffffffffffffffffffffffffffffffffff16600073ffffffffffffffffffffffffffffffffffffffff167fddf252ad1be2c89b69c2b068fc378daa952ba7f163c4a11628f55a4df523b3ef6005546040518082815260200191505060405180910390a350620002df565b828054600181600116156101000203166002900490600052602060002090601f016020900481019282620002615760008555620002ad565b82601f106200027c57805160ff1916838001178555620002ad565b82800160010185558215620002ad579182015b82811115620002ac5782518255916020019190600101906200028f565b5b509050620002bc9190620002c0565b5090565b5b80821115620002db576000816000905550600101620002c1565b5090565b610e0480620002ef6000396000f3fe608060405234801561001057600080fd5b50600436106100a95760003560e01c806370a082311161007157806370a0823114610258578063893d20e8146102b057806395d89b41146102e4578063a9059cbb14610367578063d595c331146103cb578063dd62ed3e1461040f576100a9565b806306fdde03146100ae578063095ea7b31461013157806318160ddd1461019557806323b872dd146101b3578063313ce56714610237575b600080fd5b6100b6610487565b6040518080602001828103825283818151815260200191508051906020019080838360005b838110156100f65780820151818401526020810190506100db565b50505050905090810190601f1680156101235780820380516001836020036101000a031916815260200191505b509250505060405180910390f35b61017d6004803603604081101561014757600080fd5b81019080803573ffffffffffffffffffffffffffffffffffffffff16906020019092919080359060200190929190505050610529565b60405180821515815260200191505060405180910390f35b61019d610547565b6040518082815260200191505060405180910390f35b61021f600480360360608110156101c957600080fd5b81019080803573ffffffffffffffffffffffffffffffffffffffff169060200190929190803573ffffffffffffffffffffffffffffffffffffffff16906020019092919080359060200190929190505050610551565b60405180821515815260200191505060405180910390f35b61023f610610565b604051808260ff16815260200191505060405180910390f35b61029a6004803603602081101561026e57600080fd5b81019080803573ffffffffffffffffffffffffffffffffffffffff169060200190929190505050610619565b6040518082815260200191505060405180910390f35b6102b8610661565b604051808273ffffffffffffffffffffffffffffffffffffffff16815260200191505060405180910390f35b6102ec61068b565b6040518080602001828103825283818151815260200191508051906020019080838360005b8381101561032c578082015181840152602081019050610311565b50505050905090810190601f1680156103595780820380516001836020036101000a031916815260200191505b509250505060405180910390f35b6103b36004803603604081101561037d57600080fd5b81019080803573ffffffffffffffffffffffffffffffffffffffff1690602001909291908035906020019092919050505061072d565b60405180821515815260200191505060405180910390f35b6103f7600480360360208110156103e157600080fd5b810190808035906020019092919050505061074b565b60405180821515815260200191505060405180910390f35b6104716004803603604081101561042557600080fd5b81019080803573ffffffffffffffffffffffffffffffffffffffff169060200190929190803573ffffffffffffffffffffffffffffffffffffffff169060200190929190505050610828565b6040518082815260200191505060405180910390f35b606060028054600181600116156101000203166002900480601f01602080910402602001604051908101604052809291908181526020018280546001816001161561010002031660029004801561051f5780601f106104f45761010080835404028352916020019161051f565b820191906000526020600020905b81548152906001019060200180831161050257829003601f168201915b5050505050905090565b600061053d6105366108af565b84846108b7565b6001905092915050565b6000600554905090565b60006105fa8461055f6108af565b6105f585600160008a73ffffffffffffffffffffffffffffffffffffffff1673ffffffffffffffffffffffffffffffffffffffff16815260200190815260200160002060006105ac6108af565b73ffffffffffffffffffffffffffffffffffffffff1673ffffffffffffffffffffffffffffffffffffffff16815260200190815260200160002054610a1690919063ffffffff16565b6108b7565b610605848484610a36565b600190509392505050565b60006008905090565b60008060008373ffffffffffffffffffffffffffffffffffffffff1673ffffffffffffffffffffffffffffffffffffffff168152602001908152602001600020549050919050565b6000600460009054906101000a900473ffffffffffffffffffffffffffffffffffffffff16905090565b606060038054600181600116156101000203166002900480601f0160208091040260200160405190810160405280929190818152602001828054600181600116156101000203166002900480156107235780601f106106f857610100808354040283529160200191610723565b820191906000526020600020905b81548152906001019060200180831161070657829003601f168201915b5050505050905090565b600061074161073a6108af565b8484610a36565b6001905092915050565b6000600460009054906101000a900473ffffffffffffffffffffffffffffffffffffffff1673ffffffffffffffffffffffffffffffffffffffff163373ffffffffffffffffffffffffffffffffffffffff16146107f3576040517f08c379a0000000000000000000000000000000000000000000000000000000008152600401808060200182810382526023815260200180610dac6023913960400191505060405180910390fd5b61081f600460009054906101000a900473ffffffffffffffffffffffffffffffffffffffff1683610c3a565b60019050919050565b6000600160008473ffffffffffffffffffffffffffffffffffffffff1673ffffffffffffffffffffffffffffffffffffffff16815260200190815260200160002060008373ffffffffffffffffffffffffffffffffffffffff1673ffffffffffffffffffffffffffffffffffffffff16815260200190815260200160002054905092915050565b600033905090565b600073ffffffffffffffffffffffffffffffffffffffff168373ffffffffffffffffffffffffffffffffffffffff1614156108f157600080fd5b600073ffffffffffffffffffffffffffffffffffffffff168273ffffffffffffffffffffffffffffffffffffffff16141561092b57600080fd5b80600160008573ffffffffffffffffffffffffffffffffffffffff1673ffffffffffffffffffffffffffffffffffffffff16815260200190815260200160002060008473ffffffffffffffffffffffffffffffffffffffff1673ffffffffffffffffffffffffffffffffffffffff168152602001908152602001600020819055508173ffffffffffffffffffffffffffffffffffffffff168373ffffffffffffffffffffffffffffffffffffffff167f8c5be1e5ebec7d5bd14f71427d1e84f3dd0314c0f7b2291e5b200ac8c7c3b925836040518082815260200191505060405180910390a3505050565b600082821115610a2557600080fd5b600082840390508091505092915050565b600073ffffffffffffffffffffffffffffffffffffffff168373ffffffffffffffffffffffffffffffffffffffff161415610a7057600080fd5b600073ffffffffffffffffffffffffffffffffffffffff168273ffffffffffffffffffffffffffffffffffffffff161415610aaa57600080fd5b610afb816000808673ffffffffffffffffffffffffffffffffffffffff1673ffffffffffffffffffffffffffffffffffffffff16815260200190815260200160002054610a1690919063ffffffff16565b6000808573ffffffffffffffffffffffffffffffffffffffff1673ffffffffffffffffffffffffffffffffffffffff16815260200190815260200160002081905550610b8e816000808573ffffffffffffffffffffffffffffffffffffffff1673ffffffffffffffffffffffffffffffffffffffff16815260200190815260200160002054610d8c90919063ffffffff16565b6000808473ffffffffffffffffffffffffffffffffffffffff1673ffffffffffffffffffffffffffffffffffffffff168152602001908152602001600020819055508173ffffffffffffffffffffffffffffffffffffffff168373ffffffffffffffffffffffffffffffffffffffff167fddf252ad1be2c89b69c2b068fc378daa952ba7f163c4a11628f55a4df523b3ef836040518082815260200191505060405180910390a3505050565b600073ffffffffffffffffffffffffffffffffffffffff168273ffffffffffffffffffffffffffffffffffffffff161415610c7457600080fd5b610cc5816000808573ffffffffffffffffffffffffffffffffffffffff1673ffffffffffffffffffffffffffffffffffffffff16815260200190815260200160002054610a1690919063ffffffff16565b6000808473ffffffffffffffffffffffffffffffffffffffff1673ffffffffffffffffffffffffffffffffffffffff16815260200190815260200160002081905550610d1c81600554610a1690919063ffffffff16565b600581905550600073ffffffffffffffffffffffffffffffffffffffff168273ffffffffffffffffffffffffffffffffffffffff167fddf252ad1be2c89b69c2b068fc378daa952ba7f163c4a11628f55a4df523b3ef836040518082815260200191505060405180910390a35050565b600080828401905083811015610da157600080fd5b809150509291505056fe4e4c433a206f6e6c79206f776e65722063616e206275726e2074686520746f6b656e73a2646970667358221220f2600cc1e62b8a82d3241ab2c0ee60f77b8a5d3f407b8f9534c3b4590709063d64736f6c63430007060033",
  "immutableReferences": {},
  "source": "// SPDX-License-Identifier: NLC@2021\r\n\r\npragma solidity =0.7.6;\r\n\r\nimport \"./Context.sol\";\r\n\r\ncontract NLC is Context {\r\n\r\n    using SafeMath for uint256;\r\n\r\n    mapping (address => uint256) private _balances;\r\n    mapping (address => mapping (address => uint256)) private _allowances;\r\n\r\n    /**\r\n     * @dev initial private\r\n     */\r\n    string private _name;\r\n    string private _symbol;\r\n    uint8 constant _decimal = 8;\r\n    address private _Owner;\r\n\r\n    /**\r\n     * @dev Initial supply of 1100 million tokens \r\n     */\r\n    uint256 private _totalSupply = 11E16;\r\n\r\n    event Transfer(\r\n        address indexed from,\r\n        address indexed to,\r\n        uint256 value\r\n    );\r\n\r\n    event Approval(\r\n        address indexed holder,\r\n        address indexed spender,\r\n        uint256 value\r\n    );\r\n\r\n    constructor (address _own) {\r\n        _name = \"NoLimitCoin\";\r\n        _symbol = \"NLC\";\r\n        _Owner = _own;\r\n        _balances[_Owner] = _totalSupply;\r\n\r\n        emit Transfer(address(0x0), _Owner, _totalSupply);\r\n    }\r\n\r\n    /**\r\n     * @dev Returns the name of the token.\r\n     */\r\n    function name() external view returns (string memory) {\r\n        return _name;\r\n    }\r\n\r\n    /**\r\n     * @dev Returns the symbol of the token.\r\n     */\r\n    function symbol() external view returns (string memory) {\r\n        return _symbol;\r\n    }\r\n\r\n    /**\r\n     * @dev Returns the decimals of the token.\r\n     */\r\n    function decimals() external pure returns (uint8) {\r\n        return _decimal;\r\n    }\r\n\r\n    /**\r\n     * @dev Returns the address of NLC owner.\r\n     */\r\n    function getOwner() external view returns (address) {\r\n        return _Owner;\r\n    }\r\n\r\n    /**\r\n     * @dev Returns the total supply of the token.\r\n     */\r\n    function totalSupply() external view returns (uint256) {\r\n        return _totalSupply;\r\n    }\r\n\r\n    /**\r\n     * @dev Returns the token balance of specific address.\r\n     */\r\n    function balanceOf(address _holder) external view returns (uint256) {\r\n        return _balances[_holder];\r\n    }\r\n\r\n    /**\r\n     * @dev Allows to transfer tokens \r\n     */\r\n    function transfer(\r\n        address recipient,\r\n        uint256 amount\r\n    )\r\n        external\r\n        returns (bool)\r\n    {\r\n        _transfer(\r\n            _msgSender(),\r\n            recipient,\r\n            amount\r\n        );\r\n\r\n        return true;\r\n    }\r\n\r\n    /**\r\n     * @dev Returns approved balance to be spent by another address\r\n     * by using transferFrom method\r\n     */\r\n    function allowance(\r\n        address holder,\r\n        address spender\r\n    )\r\n        external\r\n        view\r\n        returns (uint256)\r\n    {\r\n        return _allowances[holder][spender];\r\n    }\r\n\r\n    /**\r\n     * @dev Sets the token allowance to another spender\r\n     */\r\n    function approve(\r\n        address spender,\r\n        uint256 amount\r\n    )\r\n        external\r\n        returns (bool)\r\n    {\r\n        _approve(\r\n            _msgSender(),\r\n            spender,\r\n            amount\r\n        );\r\n\r\n        return true;\r\n    }\r\n\r\n    /**\r\n     * @dev Allows to transfer tokens on senders behalf\r\n     * based on allowance approved for the executer\r\n     */\r\n    function transferFrom(\r\n        address sender,\r\n        address recipient,\r\n        uint256 amount\r\n    )\r\n        external\r\n        returns (bool)\r\n    {\r\n        _approve(sender,\r\n            _msgSender(), _allowances[sender][_msgSender()].sub(\r\n                amount\r\n            )\r\n        );\r\n\r\n        _transfer(\r\n            sender,\r\n            recipient,\r\n            amount\r\n        );\r\n        return true;\r\n    }\r\n\r\n    /**\r\n     * @notice allows owner to burn supply\r\n     * @param _amount of tokens to burn for owner Address\r\n     */\r\n    function burnSupply(\r\n        uint256 _amount\r\n    )\r\n        external\r\n        returns (bool)\r\n    {\r\n        require(\r\n            msg.sender ==  _Owner,\r\n            'NLC: only owner can burn the tokens'\r\n        );\r\n\r\n        _burn(\r\n            _Owner,\r\n            _amount\r\n        );\r\n        return true;\r\n    }\r\n\r\n\r\n    /**\r\n     * @dev Moves tokens `amount` from `sender` to `recipient`.\r\n     *\r\n     * Emits a {Transfer} event.\r\n     * Requirements:\r\n     *\r\n     * - `sender` cannot be the zero address.\r\n     * - `recipient` cannot be the zero address.\r\n     * - `sender` must have a balance of at least `amount`.\r\n     */\r\n    function _transfer(\r\n        address sender,\r\n        address recipient,\r\n        uint256 amount\r\n    )\r\n        internal\r\n        virtual\r\n    {\r\n        require(\r\n            sender != address(0x0)\r\n        );\r\n\r\n        require(\r\n            recipient != address(0x0)\r\n        );\r\n\r\n        _balances[sender] =\r\n        _balances[sender].sub(amount);\r\n\r\n        _balances[recipient] =\r\n        _balances[recipient].add(amount);\r\n\r\n        emit Transfer(\r\n            sender,\r\n            recipient,\r\n            amount\r\n        );\r\n    }\r\n\r\n    /**\r\n     * @dev Sets `amount` as the allowance of `spender` over the `holder`s tokens.\r\n     * Emits an {Approval} event.\r\n     *\r\n     * Requirements:\r\n     *\r\n     * - `holder` cannot be the zero address.\r\n     * - `spender` cannot be the zero address.\r\n     */\r\n    function _approve(\r\n        address holder,\r\n        address spender,\r\n        uint256 amount\r\n    )\r\n        internal\r\n        virtual\r\n    {\r\n        require(\r\n            holder != address(0x0)\r\n        );\r\n\r\n        require(\r\n            spender != address(0x0)\r\n        );\r\n\r\n        _allowances[holder][spender] = amount;\r\n\r\n        emit Approval(\r\n            holder,\r\n            spender,\r\n            amount\r\n        );\r\n    }\r\n\r\n     /**\r\n     * @dev Destroys `amount` tokens from `account`, reducing the\r\n     * total supply.\r\n     *\r\n     * Emits a {Transfer} event with `to` set to the zero address.\r\n     *\r\n     * Requirements:\r\n     *\r\n     * - `account` cannot be the zero address.\r\n     * - `account` must have at least `amount` tokens.\r\n     */\r\n    function _burn(\r\n        address account,\r\n        uint256 amount\r\n    )\r\n        internal\r\n        virtual\r\n    {\r\n        require(\r\n            account != address(0x0)\r\n        );\r\n\r\n        _balances[account] =\r\n        _balances[account].sub(amount);\r\n\r\n        _totalSupply =\r\n        _totalSupply.sub(amount);\r\n\r\n        emit Transfer(\r\n            account,\r\n            address(0x0),\r\n            amount\r\n        );\r\n    }\r\n    \r\n}",
  "sourcePath": "C:/Users/Dhaval/eth/NLC/src/contracts/NLC.sol",
  "compiler": {
    "name": "solc",
    "version": "0.7.6+commit.7338295f.Emscripten.clang"
  },
  "schemaVersion": "3.3.3",
  "updatedAt": "2021-03-31T03:57:04.389Z",
  "devdoc": {
    "kind": "dev",
    "methods": {
      "allowance(address,address)": {
        "details": "Returns approved balance to be spent by another address by using transferFrom method"
      },
      "approve(address,uint256)": {
        "details": "Sets the token allowance to another spender"
      },
      "balanceOf(address)": {
        "details": "Returns the token balance of specific address."
      },
      "burnSupply(uint256)": {
        "params": {
          "_amount": "of tokens to burn for owner Address"
        }
      },
      "decimals()": {
        "details": "Returns the decimals of the token."
      },
      "getOwner()": {
        "details": "Returns the address of NLC owner."
      },
      "name()": {
        "details": "Returns the name of the token."
      },
      "symbol()": {
        "details": "Returns the symbol of the token."
      },
      "totalSupply()": {
        "details": "Returns the total supply of the token."
      },
      "transfer(address,uint256)": {
        "details": "Allows to transfer tokens "
      },
      "transferFrom(address,address,uint256)": {
        "details": "Allows to transfer tokens on senders behalf based on allowance approved for the executer"
      }
    },
    "stateVariables": {
      "_name": {
        "details": "initial private"
      },
      "_totalSupply": {
        "details": "Initial supply of 1100 million tokens "
      }
    },
    "version": 1
  },
  "userdoc": {
    "kind": "user",
    "methods": {
      "burnSupply(uint256)": {
        "notice": "allows owner to burn supply"
      }
    },
    "version": 1
  }
}