{
  "contractName": "NLC",
  "abi": [
    {
      "inputs": [
        {
          "internalType": "address",
          "name": "_own",
          "type": "address"
        },
        {
          "internalType": "address",
          "name": "_swap",
          "type": "address"
        }
      ],
      "stateMutability": "nonpayable",
      "type": "constructor"
    },
    {
      "anonymous": false,
      "inputs": [
        {
          "indexed": true,
          "internalType": "address",
          "name": "holder",
          "type": "address"
        },
        {
          "indexed": true,
          "internalType": "address",
          "name": "spender",
          "type": "address"
        },
        {
          "indexed": false,
          "internalType": "uint256",
          "name": "value",
          "type": "uint256"
        }
      ],
      "name": "Approval",
      "type": "event"
    },
    {
      "anonymous": false,
      "inputs": [
        {
          "indexed": true,
          "internalType": "address",
          "name": "from",
          "type": "address"
        },
        {
          "indexed": true,
          "internalType": "address",
          "name": "to",
          "type": "address"
        },
        {
          "indexed": false,
          "internalType": "uint256",
          "name": "value",
          "type": "uint256"
        }
      ],
      "name": "Transfer",
      "type": "event"
    },
    {
      "inputs": [],
      "name": "name",
      "outputs": [
        {
          "internalType": "string",
          "name": "",
          "type": "string"
        }
      ],
      "stateMutability": "view",
      "type": "function"
    },
    {
      "inputs": [],
      "name": "symbol",
      "outputs": [
        {
          "internalType": "string",
          "name": "",
          "type": "string"
        }
      ],
      "stateMutability": "view",
      "type": "function"
    },
    {
      "inputs": [],
      "name": "decimals",
      "outputs": [
        {
          "internalType": "uint8",
          "name": "",
          "type": "uint8"
        }
      ],
      "stateMutability": "view",
      "type": "function"
    },
    {
      "inputs": [],
      "name": "getOwner",
      "outputs": [
        {
          "internalType": "address",
          "name": "",
          "type": "address"
        }
      ],
      "stateMutability": "view",
      "type": "function"
    },
    {
      "inputs": [],
      "name": "totalSupply",
      "outputs": [
        {
          "internalType": "uint256",
          "name": "",
          "type": "uint256"
        }
      ],
      "stateMutability": "view",
      "type": "function"
    },
    {
      "inputs": [
        {
          "internalType": "address",
          "name": "_holder",
          "type": "address"
        }
      ],
      "name": "balanceOf",
      "outputs": [
        {
          "internalType": "uint256",
          "name": "",
          "type": "uint256"
        }
      ],
      "stateMutability": "view",
      "type": "function"
    },
    {
      "inputs": [
        {
          "internalType": "address",
          "name": "recipient",
          "type": "address"
        },
        {
          "internalType": "uint256",
          "name": "amount",
          "type": "uint256"
        }
      ],
      "name": "transfer",
      "outputs": [
        {
          "internalType": "bool",
          "name": "",
          "type": "bool"
        }
      ],
      "stateMutability": "nonpayable",
      "type": "function"
    },
    {
      "inputs": [
        {
          "internalType": "address",
          "name": "holder",
          "type": "address"
        },
        {
          "internalType": "address",
          "name": "spender",
          "type": "address"
        }
      ],
      "name": "allowance",
      "outputs": [
        {
          "internalType": "uint256",
          "name": "",
          "type": "uint256"
        }
      ],
      "stateMutability": "view",
      "type": "function"
    },
    {
      "inputs": [
        {
          "internalType": "address",
          "name": "spender",
          "type": "address"
        },
        {
          "internalType": "uint256",
          "name": "amount",
          "type": "uint256"
        }
      ],
      "name": "approve",
      "outputs": [
        {
          "internalType": "bool",
          "name": "",
          "type": "bool"
        }
      ],
      "stateMutability": "nonpayable",
      "type": "function"
    },
    {
      "inputs": [
        {
          "internalType": "address",
          "name": "sender",
          "type": "address"
        },
        {
          "internalType": "address",
          "name": "recipient",
          "type": "address"
        },
        {
          "internalType": "uint256",
          "name": "amount",
          "type": "uint256"
        }
      ],
      "name": "transferFrom",
      "outputs": [
        {
          "internalType": "bool",
          "name": "",
          "type": "bool"
        }
      ],
      "stateMutability": "nonpayable",
      "type": "function"
    },
    {
      "inputs": [
        {
          "components": [
            {
              "internalType": "address",
              "name": "recipient",
              "type": "address"
            },
            {
              "internalType": "uint256",
              "name": "amount",
              "type": "uint256"
            }
          ],
          "internalType": "struct NLC.TokenTransfer[]",
          "name": "_account",
          "type": "tuple[]"
        }
      ],
      "name": "transferToMultipleAccounts",
      "outputs": [
        {
          "internalType": "bool",
          "name": "",
          "type": "bool"
        }
      ],
      "stateMutability": "nonpayable",
      "type": "function"
    },
    {
      "inputs": [
        {
          "internalType": "address",
          "name": "_immutableTransformer",
          "type": "address"
        }
      ],
      "name": "setStakeTransformer",
      "outputs": [],
      "stateMutability": "nonpayable",
      "type": "function"
    },
    {
      "inputs": [],
      "name": "revokeAccess",
      "outputs": [],
      "stateMutability": "nonpayable",
      "type": "function"
    },
    {
      "inputs": [
        {
          "internalType": "uint256",
          "name": "_amount",
          "type": "uint256"
        }
      ],
      "name": "mintSupplyToSwapAdmin",
      "outputs": [],
      "stateMutability": "nonpayable",
      "type": "function"
    },
    {
      "inputs": [
        {
          "internalType": "address",
          "name": "_investorAddress",
          "type": "address"
        },
        {
          "internalType": "uint256",
          "name": "_amount",
          "type": "uint256"
        }
      ],
      "name": "mintSupply",
      "outputs": [],
      "stateMutability": "nonpayable",
      "type": "function"
    },
    {
      "inputs": [
        {
          "internalType": "address",
          "name": "_investorAddress",
          "type": "address"
        },
        {
          "internalType": "uint256",
          "name": "_amount",
          "type": "uint256"
        }
      ],
      "name": "burnSupply",
      "outputs": [],
      "stateMutability": "nonpayable",
      "type": "function"
    },
    {
      "inputs": [
        {
          "internalType": "uint256",
          "name": "amount",
          "type": "uint256"
        }
      ],
      "name": "burn",
      "outputs": [],
      "stateMutability": "nonpayable",
      "type": "function"
    }
  ],
  "bytecode": "0x60c06040526008600660006101000a81548160ff021916908360ff160217905550600060085567016f7c12474880006009553480156200003e57600080fd5b5060405162001daa38038062001daa8339818101604052810190620000649190620002b0565b6040518060400160405280600b81526020017f4e6f4c696d6974436f696e00000000000000000000000000000000000000000081525060049080519060200190620000b1929190620001e3565b506040518060400160405280600381526020017f4e4c43000000000000000000000000000000000000000000000000000000000081525060059080519060200190620000ff929190620001e3565b5081600660016101000a81548173ffffffffffffffffffffffffffffffffffffffff021916908373ffffffffffffffffffffffffffffffffffffffff16021790555080600760006101000a81548173ffffffffffffffffffffffffffffffffffffffff021916908373ffffffffffffffffffffffffffffffffffffffff16021790555033600360006101000a81548173ffffffffffffffffffffffffffffffffffffffff021916908373ffffffffffffffffffffffffffffffffffffffff1602179055506360650d0060808181525050636427740060a0818152505050506200033f565b828054600181600116156101000203166002900490600052602060002090601f0160209004810192826200021b576000855562000267565b82601f106200023657805160ff191683800117855562000267565b8280016001018555821562000267579182015b828111156200026657825182559160200191906001019062000249565b5b5090506200027691906200027a565b5090565b5b80821115620002955760008160009055506001016200027b565b5090565b600081519050620002aa8162000325565b92915050565b60008060408385031215620002c457600080fd5b6000620002d48582860162000299565b9250506020620002e78582860162000299565b9150509250929050565b6000620002fe8262000305565b9050919050565b600073ffffffffffffffffffffffffffffffffffffffff82169050919050565b6200033081620002f1565b81146200033c57600080fd5b50565b60805160a051611a4c6200035e600039806108c8525050611a4c6000f3fe608060405234801561001057600080fd5b506004361061010b5760003560e01c806370a08231116100a2578063a9059cbb11610071578063a9059cbb14610294578063aecf8a6d146102c4578063dd62ed3e146102e0578063e094ad3b14610310578063e742806a146103405761010b565b806370a082311461020c578063893d20e81461023c57806395d89b411461025a578063a45627a0146102785761010b565b8063313ce567116100de578063313ce567146101ac57806342966c68146101ca5780634e4c7d9b146101e657806364ff5111146101f05761010b565b806306fdde0314610110578063095ea7b31461012e57806318160ddd1461015e57806323b872dd1461017c575b600080fd5b61011861035c565b60405161012591906117bc565b60405180910390f35b61014860048036038101906101439190611453565b6103fe565b60405161015591906117a1565b60405180910390f35b61016661041c565b604051610173919061189e565b60405180910390f35b61019660048036038101906101919190611404565b610426565b6040516101a391906117a1565b60405180910390f35b6101b46104e5565b6040516101c191906118b9565b60405180910390f35b6101e460048036038101906101df91906114d0565b6104fc565b005b6101ee610509565b005b61020a6004803603810190610205919061139f565b610633565b005b6102266004803603810190610221919061139f565b610722565b604051610233919061189e565b60405180910390f35b61024461076a565b6040516102519190611786565b60405180910390f35b610262610794565b60405161026f91906117bc565b60405180910390f35b610292600480360381019061028d91906114d0565b610836565b005b6102ae60048036038101906102a99190611453565b610958565b6040516102bb91906117a1565b60405180910390f35b6102de60048036038101906102d99190611453565b610976565b005b6102fa60048036038101906102f591906113c8565b610a14565b604051610307919061189e565b60405180910390f35b61032a6004803603810190610325919061148f565b610a9b565b60405161033791906117a1565b60405180910390f35b61035a60048036038101906103559190611453565b610b4e565b005b606060048054600181600116156101000203166002900480601f0160208091040260200160405190810160405280929190818152602001828054600181600116156101000203166002900480156103f45780601f106103c9576101008083540402835291602001916103f4565b820191906000526020600020905b8154815290600101906020018083116103d757829003601f168201915b5050505050905090565b600061041261040b610bec565b8484610bf4565b6001905092915050565b6000600854905090565b60006104cf84610434610bec565b6104ca85600160008a73ffffffffffffffffffffffffffffffffffffffff1673ffffffffffffffffffffffffffffffffffffffff1681526020019081526020016000206000610481610bec565b73ffffffffffffffffffffffffffffffffffffffff1673ffffffffffffffffffffffffffffffffffffffff16815260200190815260200160002054610d5390919063ffffffff16565b610bf4565b6104da848484610d73565b600190509392505050565b6000600660009054906101000a900460ff16905090565b6105063382610f77565b50565b3373ffffffffffffffffffffffffffffffffffffffff16600360009054906101000a900473ffffffffffffffffffffffffffffffffffffffff1673ffffffffffffffffffffffffffffffffffffffff1614610599576040517f08c379a00000000000000000000000000000000000000000000000000000000081526004016105909061183e565b60405180910390fd5b60011515600360149054906101000a900460ff161515146105ef576040517f08c379a00000000000000000000000000000000000000000000000000000000081526004016105e69061181e565b60405180910390fd5b6000600360006101000a81548173ffffffffffffffffffffffffffffffffffffffff021916908373ffffffffffffffffffffffffffffffffffffffff160217905550565b3373ffffffffffffffffffffffffffffffffffffffff16600360009054906101000a900473ffffffffffffffffffffffffffffffffffffffff1673ffffffffffffffffffffffffffffffffffffffff16146106c3576040517f08c379a00000000000000000000000000000000000000000000000000000000081526004016106ba9061183e565b60405180910390fd5b80600260006101000a81548173ffffffffffffffffffffffffffffffffffffffff021916908373ffffffffffffffffffffffffffffffffffffffff1602179055506001600360146101000a81548160ff02191690831515021790555050565b60008060008373ffffffffffffffffffffffffffffffffffffffff1673ffffffffffffffffffffffffffffffffffffffff168152602001908152602001600020549050919050565b6000600660019054906101000a900473ffffffffffffffffffffffffffffffffffffffff16905090565b606060058054600181600116156101000203166002900480601f01602080910402602001604051908101604052809291908181526020018280546001816001161561010002031660029004801561082c5780601f106108015761010080835404028352916020019161082c565b820191906000526020600020905b81548152906001019060200180831161080f57829003601f168201915b5050505050905090565b600660019054906101000a900473ffffffffffffffffffffffffffffffffffffffff1673ffffffffffffffffffffffffffffffffffffffff163373ffffffffffffffffffffffffffffffffffffffff16146108c6576040517f08c379a00000000000000000000000000000000000000000000000000000000081526004016108bd906117de565b60405180910390fd5b7f0000000000000000000000000000000000000000000000000000000000000000421115610929576040517f08c379a00000000000000000000000000000000000000000000000000000000081526004016109209061187e565b60405180910390fd5b610955600760009054906101000a900473ffffffffffffffffffffffffffffffffffffffff16826110c9565b50565b600061096c610965610bec565b8484610d73565b6001905092915050565b600260009054906101000a900473ffffffffffffffffffffffffffffffffffffffff1673ffffffffffffffffffffffffffffffffffffffff163373ffffffffffffffffffffffffffffffffffffffff1614610a06576040517f08c379a00000000000000000000000000000000000000000000000000000000081526004016109fd906117de565b60405180910390fd5b610a108282610f77565b5050565b6000600160008473ffffffffffffffffffffffffffffffffffffffff1673ffffffffffffffffffffffffffffffffffffffff16815260200190815260200160002060008373ffffffffffffffffffffffffffffffffffffffff1673ffffffffffffffffffffffffffffffffffffffff16815260200190815260200160002054905092915050565b6000600a82511115610ae2576040517f08c379a0000000000000000000000000000000000000000000000000000000008152600401610ad99061185e565b60405180910390fd5b60005b82518160ff161015610b4457610b37610afc610bec565b848360ff1681518110610b0b57fe5b602002602001015160000151858460ff1681518110610b2657fe5b602002602001015160200151610d73565b8080600101915050610ae5565b5060019050919050565b600260009054906101000a900473ffffffffffffffffffffffffffffffffffffffff1673ffffffffffffffffffffffffffffffffffffffff163373ffffffffffffffffffffffffffffffffffffffff1614610bde576040517f08c379a0000000000000000000000000000000000000000000000000000000008152600401610bd5906117de565b60405180910390fd5b610be882826110c9565b5050565b600033905090565b600073ffffffffffffffffffffffffffffffffffffffff168373ffffffffffffffffffffffffffffffffffffffff161415610c2e57600080fd5b600073ffffffffffffffffffffffffffffffffffffffff168273ffffffffffffffffffffffffffffffffffffffff161415610c6857600080fd5b80600160008573ffffffffffffffffffffffffffffffffffffffff1673ffffffffffffffffffffffffffffffffffffffff16815260200190815260200160002060008473ffffffffffffffffffffffffffffffffffffffff1673ffffffffffffffffffffffffffffffffffffffff168152602001908152602001600020819055508173ffffffffffffffffffffffffffffffffffffffff168373ffffffffffffffffffffffffffffffffffffffff167f8c5be1e5ebec7d5bd14f71427d1e84f3dd0314c0f7b2291e5b200ac8c7c3b92583604051610d46919061189e565b60405180910390a3505050565b600082821115610d6257600080fd5b600082840390508091505092915050565b600073ffffffffffffffffffffffffffffffffffffffff168373ffffffffffffffffffffffffffffffffffffffff161415610dad57600080fd5b600073ffffffffffffffffffffffffffffffffffffffff168273ffffffffffffffffffffffffffffffffffffffff161415610de757600080fd5b610e38816000808673ffffffffffffffffffffffffffffffffffffffff1673ffffffffffffffffffffffffffffffffffffffff16815260200190815260200160002054610d5390919063ffffffff16565b6000808573ffffffffffffffffffffffffffffffffffffffff1673ffffffffffffffffffffffffffffffffffffffff16815260200190815260200160002081905550610ecb816000808573ffffffffffffffffffffffffffffffffffffffff1673ffffffffffffffffffffffffffffffffffffffff1681526020019081526020016000205461127490919063ffffffff16565b6000808473ffffffffffffffffffffffffffffffffffffffff1673ffffffffffffffffffffffffffffffffffffffff168152602001908152602001600020819055508173ffffffffffffffffffffffffffffffffffffffff168373ffffffffffffffffffffffffffffffffffffffff167fddf252ad1be2c89b69c2b068fc378daa952ba7f163c4a11628f55a4df523b3ef83604051610f6a919061189e565b60405180910390a3505050565b600073ffffffffffffffffffffffffffffffffffffffff168273ffffffffffffffffffffffffffffffffffffffff161415610fb157600080fd5b611002816000808573ffffffffffffffffffffffffffffffffffffffff1673ffffffffffffffffffffffffffffffffffffffff16815260200190815260200160002054610d5390919063ffffffff16565b6000808473ffffffffffffffffffffffffffffffffffffffff1673ffffffffffffffffffffffffffffffffffffffff1681526020019081526020016000208190555061105981600854610d5390919063ffffffff16565b600881905550600073ffffffffffffffffffffffffffffffffffffffff168273ffffffffffffffffffffffffffffffffffffffff167fddf252ad1be2c89b69c2b068fc378daa952ba7f163c4a11628f55a4df523b3ef836040516110bd919061189e565b60405180910390a35050565b600073ffffffffffffffffffffffffffffffffffffffff168273ffffffffffffffffffffffffffffffffffffffff16141561110357600080fd5b60095461111b8260085461127490919063ffffffff16565b111561115c576040517f08c379a0000000000000000000000000000000000000000000000000000000008152600401611153906117fe565b60405180910390fd5b6111718160085461127490919063ffffffff16565b6008819055506111c8816000808573ffffffffffffffffffffffffffffffffffffffff1673ffffffffffffffffffffffffffffffffffffffff1681526020019081526020016000205461127490919063ffffffff16565b6000808473ffffffffffffffffffffffffffffffffffffffff1673ffffffffffffffffffffffffffffffffffffffff168152602001908152602001600020819055508173ffffffffffffffffffffffffffffffffffffffff16600073ffffffffffffffffffffffffffffffffffffffff167fddf252ad1be2c89b69c2b068fc378daa952ba7f163c4a11628f55a4df523b3ef83604051611268919061189e565b60405180910390a35050565b60008082840190508381101561128957600080fd5b8091505092915050565b60006112a66112a184611905565b6118d4565b905080838252602082019050828560408602820111156112c557600080fd5b60005b858110156112f557816112db888261133e565b8452602084019350604083019250506001810190506112c8565b5050509392505050565b60008135905061130e816119e8565b92915050565b600082601f83011261132557600080fd5b8135611335848260208601611293565b91505092915050565b60006040828403121561135057600080fd5b61135a60406118d4565b9050600061136a848285016112ff565b600083015250602061137e8482850161138a565b60208301525092915050565b600081359050611399816119ff565b92915050565b6000602082840312156113b157600080fd5b60006113bf848285016112ff565b91505092915050565b600080604083850312156113db57600080fd5b60006113e9858286016112ff565b92505060206113fa858286016112ff565b9150509250929050565b60008060006060848603121561141957600080fd5b6000611427868287016112ff565b9350506020611438868287016112ff565b92505060406114498682870161138a565b9150509250925092565b6000806040838503121561146657600080fd5b6000611474858286016112ff565b92505060206114858582860161138a565b9150509250929050565b6000602082840312156114a157600080fd5b600082013567ffffffffffffffff8111156114bb57600080fd5b6114c784828501611314565b91505092915050565b6000602082840312156114e257600080fd5b60006114f08482850161138a565b91505092915050565b6115028161194d565b82525050565b6115118161195f565b82525050565b600061152282611931565b61152c818561193c565b935061153c8185602086016119a2565b611545816119d7565b840191505092915050565b600061155d60168361193c565b91507f4e4c433a2077726f6e67207472616e73666f726d6572000000000000000000006000830152602082019050919050565b600061159d602d8361193c565b91507f4e4c433a206d696e7420616d6f756e742065786365656473206d6178696d756d60008301527f20737570706c79206c696d6974000000000000000000000000000000000000006020830152604082019050919050565b6000611603602c8361193c565b91507f4e4c433a20616363657373206973206e6f7420676976656e20746f207374616b60008301527f696e6720636f6e747261637400000000000000000000000000000000000000006020830152604082019050919050565b600061166960188361193c565b91507f4e4c433a207472616e73666f726d657220646566696e656400000000000000006000830152602082019050919050565b60006116a960418361193c565b91507f4e4c433a206d6f7265207468616e203130207472616e7366657273206172652060008301527f6e6f7420616c6c6f77656420696e2073696e676c65207472616e73616374696f60208301527f6e000000000000000000000000000000000000000000000000000000000000006040830152606082019050919050565b600061173560208361193c565b91507f4e4c433a20416363657373206973207265766f6b656420666f72206f776e65726000830152602082019050919050565b6117718161198b565b82525050565b61178081611995565b82525050565b600060208201905061179b60008301846114f9565b92915050565b60006020820190506117b66000830184611508565b92915050565b600060208201905081810360008301526117d68184611517565b905092915050565b600060208201905081810360008301526117f781611550565b9050919050565b6000602082019050818103600083015261181781611590565b9050919050565b60006020820190508181036000830152611837816115f6565b9050919050565b600060208201905081810360008301526118578161165c565b9050919050565b600060208201905081810360008301526118778161169c565b9050919050565b6000602082019050818103600083015261189781611728565b9050919050565b60006020820190506118b36000830184611768565b92915050565b60006020820190506118ce6000830184611777565b92915050565b6000604051905081810181811067ffffffffffffffff821117156118fb576118fa6119d5565b5b8060405250919050565b600067ffffffffffffffff8211156119205761191f6119d5565b5b602082029050602081019050919050565b600081519050919050565b600082825260208201905092915050565b60006119588261196b565b9050919050565b60008115159050919050565b600073ffffffffffffffffffffffffffffffffffffffff82169050919050565b6000819050919050565b600060ff82169050919050565b60005b838110156119c05780820151818401526020810190506119a5565b838111156119cf576000848401525b50505050565bfe5b6000601f19601f8301169050919050565b6119f18161194d565b81146119fc57600080fd5b50565b611a088161198b565b8114611a1357600080fd5b5056fea2646970667358221220566916feeef47cdcfffedf62c762f0da74059e4d1af0fbb775c724d69a5ca35464736f6c63430007060033",
  "immutableReferences": {
    "111": [
      {
        "length": 32,
        "start": 2248
      }
    ]
  },
  "source": "// SPDX-License-Identifier: NLC@2021\r\n\r\npragma solidity =0.7.6;\r\n\r\npragma abicoder v2;\r\n\r\nimport \"./Context.sol\";\r\n\r\ncontract NLC is Context {\r\n\r\n    using SafeMath for uint256;\r\n\r\n    mapping (address => uint256) private _balances;\r\n    mapping (address => mapping (address => uint256)) private _allowances;\r\n\r\n    address private _STAKE_TRANSFORMER;\r\n    address private _stakeGateKeeper;\r\n    bool private _stakeAccess;\r\n\r\n    uint256 immutable LAUNCH_TIME;\r\n    uint256 immutable Owner_Mint_Access_Revoke_Time;\r\n\r\n    struct TokenTransfer {\r\n        address recipient;\r\n        uint256 amount;\r\n    }\r\n\r\n    /**\r\n     * @dev initial private\r\n     */\r\n    string private _name;\r\n    string private _symbol;\r\n    uint8 private _decimal = 8;\r\n    address private _Owner;\r\n    address private _swapAdmin;\r\n\r\n    /**\r\n     * @dev Initial supply \r\n     */\r\n    uint256 private _totalSupply = 0;\r\n\r\n    /**\r\n     * @dev Maximum supply \r\n     */\r\n    uint256 private maxSupply = 103437734400000000;\r\n\r\n    event Transfer(\r\n        address indexed from,\r\n        address indexed to,\r\n        uint256 value\r\n    );\r\n\r\n    event Approval(\r\n        address indexed holder,\r\n        address indexed spender,\r\n        uint256 value\r\n    );\r\n\r\n    constructor (address _own, address _swap) {\r\n        _name = \"NoLimitCoin\";\r\n        _symbol = \"NLC\";\r\n        _Owner = _own;\r\n        _swapAdmin = _swap;\r\n        _stakeGateKeeper = msg.sender; \r\n        LAUNCH_TIME = 1617235200; //(1st April 2021 @00:00)\r\n        Owner_Mint_Access_Revoke_Time = 1680307200; //(1st April 2023 @00:00)\r\n    }\r\n\r\n    /**\r\n     * @dev Returns the name of the token.\r\n     */\r\n    function name() public view returns (string memory) {\r\n        return _name;\r\n    }\r\n\r\n    /**\r\n     * @dev Returns the symbol of the token.\r\n     */\r\n    function symbol() public view returns (string memory) {\r\n        return _symbol;\r\n    }\r\n\r\n    /**\r\n     * @dev Returns the decimals of the token.\r\n     */\r\n    function decimals() public view returns (uint8) {\r\n        return _decimal;\r\n    }\r\n\r\n    /**\r\n     * @dev Returns the address of NLC owner.\r\n     */\r\n    function getOwner() public view returns (address) {\r\n        return _Owner;\r\n    }\r\n\r\n    /**\r\n     * @dev Returns the total supply of the token.\r\n     */\r\n    function totalSupply() public view returns (uint256) {\r\n        return _totalSupply;\r\n    }\r\n\r\n    /**\r\n     * @dev Returns the token balance of specific address.\r\n     */\r\n    function balanceOf(address _holder) public view returns (uint256) {\r\n        return _balances[_holder];\r\n    }\r\n\r\n    /**\r\n     * @dev Allows to transfer tokens \r\n     */\r\n    function transfer(\r\n        address recipient,\r\n        uint256 amount\r\n    )\r\n        public\r\n        returns (bool)\r\n    {\r\n        _transfer(\r\n            _msgSender(),\r\n            recipient,\r\n            amount\r\n        );\r\n\r\n        return true;\r\n    }\r\n\r\n    /**\r\n     * @dev Returns approved balance to be spent by another address\r\n     * by using transferFrom method\r\n     */\r\n    function allowance(\r\n        address holder,\r\n        address spender\r\n    )\r\n        public\r\n        view\r\n        returns (uint256)\r\n    {\r\n        return _allowances[holder][spender];\r\n    }\r\n\r\n    /**\r\n     * @dev Sets the token allowance to another spender\r\n     */\r\n    function approve(\r\n        address spender,\r\n        uint256 amount\r\n    )\r\n        public\r\n        returns (bool)\r\n    {\r\n        _approve(\r\n            _msgSender(),\r\n            spender,\r\n            amount\r\n        );\r\n\r\n        return true;\r\n    }\r\n\r\n    /**\r\n     * @dev Allows to transfer tokens on senders behalf\r\n     * based on allowance approved for the executer\r\n     */\r\n    function transferFrom(\r\n        address sender,\r\n        address recipient,\r\n        uint256 amount\r\n    )\r\n        public\r\n        returns (bool)\r\n    {\r\n        _approve(sender,\r\n            _msgSender(), _allowances[sender][_msgSender()].sub(\r\n                amount\r\n            )\r\n        );\r\n\r\n        _transfer(\r\n            sender,\r\n            recipient,\r\n            amount\r\n        );\r\n        return true;\r\n    }\r\n\r\n    /**\r\n     * @dev Allows to transfer tokens to multiple accounts\r\n     */\r\n    function transferToMultipleAccounts(\r\n        TokenTransfer[] memory _account \r\n    )\r\n        public\r\n        returns (bool)\r\n    {   \r\n        require(\r\n            _account.length <= 10, \r\n            'NLC: more than 10 transfers are not allowed in single transaction'\r\n        );\r\n\r\n        for (uint8 _i = 0; _i < _account.length; _i++) {\r\n\r\n            _transfer(\r\n                _msgSender(),\r\n                _account[_i].recipient,\r\n                _account[_i].amount\r\n            );\r\n\r\n        }\r\n\r\n        return true;\r\n    }\r\n\r\n    /**\r\n     * @dev Moves tokens `amount` from `sender` to `recipient`.\r\n     *\r\n     * Emits a {Transfer} event.\r\n     * Requirements:\r\n     *\r\n     * - `sender` cannot be the zero address.\r\n     * - `recipient` cannot be the zero address.\r\n     * - `sender` must have a balance of at least `amount`.\r\n     */\r\n    function _transfer(\r\n        address sender,\r\n        address recipient,\r\n        uint256 amount\r\n    )\r\n        internal\r\n        virtual\r\n    {\r\n        require(\r\n            sender != address(0x0)\r\n        );\r\n\r\n        require(\r\n            recipient != address(0x0)\r\n        );\r\n\r\n        _balances[sender] =\r\n        _balances[sender].sub(amount);\r\n\r\n        _balances[recipient] =\r\n        _balances[recipient].add(amount);\r\n\r\n        emit Transfer(\r\n            sender,\r\n            recipient,\r\n            amount\r\n        );\r\n    }\r\n\r\n    /** @dev Creates `amount` tokens and assigns them to `account`, increasing\r\n     * the total supply.\r\n     *\r\n     * Emits a {Transfer} event with `from` set to the zero address.\r\n     * Requirements:\r\n     *\r\n     * - `to` cannot be the zero address.\r\n     */\r\n    function _mint(\r\n        address account,\r\n        uint256 amount\r\n    )\r\n        internal\r\n        virtual\r\n    {\r\n        require(\r\n            account != address(0x0)\r\n        );\r\n\r\n        require(\r\n            _totalSupply.add(amount) <= maxSupply,\r\n            'NLC: mint amount exceeds maximum supply limit'\r\n        );\r\n\r\n        _totalSupply =\r\n        _totalSupply.add(amount);\r\n\r\n        _balances[account] =\r\n        _balances[account].add(amount);\r\n\r\n        emit Transfer(\r\n            address(0x0),\r\n            account,\r\n            amount\r\n        );\r\n    }\r\n\r\n\r\n    /**\r\n     * @dev Destroys `amount` tokens from `account`, reducing the\r\n     * total supply.\r\n     *\r\n     * Emits a {Transfer} event with `to` set to the zero address.\r\n     *\r\n     * Requirements:\r\n     *\r\n     * - `account` cannot be the zero address.\r\n     * - `account` must have at least `amount` tokens.\r\n     */\r\n    function _burn(\r\n        address account,\r\n        uint256 amount\r\n    )\r\n        internal\r\n        virtual\r\n    {\r\n        require(\r\n            account != address(0x0)\r\n        );\r\n\r\n        _balances[account] =\r\n        _balances[account].sub(amount);\r\n\r\n        _totalSupply =\r\n        _totalSupply.sub(amount);\r\n\r\n        emit Transfer(\r\n            account,\r\n            address(0x0),\r\n            amount\r\n        );\r\n    }\r\n\r\n    /**\r\n     * @dev Sets `amount` as the allowance of `spender` over the `holder`s tokens.\r\n     * Emits an {Approval} event.\r\n     *\r\n     * Requirements:\r\n     *\r\n     * - `holder` cannot be the zero address.\r\n     * - `spender` cannot be the zero address.\r\n     */\r\n    function _approve(\r\n        address holder,\r\n        address spender,\r\n        uint256 amount\r\n    )\r\n        internal\r\n        virtual\r\n    {\r\n        require(\r\n            holder != address(0x0)\r\n        );\r\n\r\n        require(\r\n            spender != address(0x0)\r\n        );\r\n\r\n        _allowances[holder][spender] = amount;\r\n\r\n        emit Approval(\r\n            holder,\r\n            spender,\r\n            amount\r\n        );\r\n    }\r\n\r\n    /**\r\n     * @notice ability to define stake transformer contract\r\n     * @param _immutableTransformer contract address\r\n     */\r\n    function setStakeTransformer(\r\n        address _immutableTransformer\r\n    )\r\n        external\r\n    {\r\n        require(\r\n            _stakeGateKeeper == msg.sender,\r\n            'NLC: transformer defined'\r\n        );\r\n\r\n        _STAKE_TRANSFORMER = _immutableTransformer;\r\n        _stakeAccess = true;\r\n    }\r\n\r\n    /**\r\n     * @notice ability to renounce _stakeGateKeeper access \r\n     * after giving access to staking contract\r\n     */\r\n    function revokeAccess()\r\n        external\r\n    {\r\n        require(\r\n            _stakeGateKeeper == msg.sender,\r\n            'NLC: transformer defined'\r\n        ); \r\n\r\n        require(\r\n            _stakeAccess == true,\r\n            'NLC: access is not given to staking contract'\r\n        ); \r\n\r\n        _stakeGateKeeper = address(0x0);  \r\n    }    \r\n\r\n    /**\r\n     * @notice allows liquidityTransformer to mint supply to swap admin's account \r\n     * @dev executed from liquidityTransformer upon NLC2 transfer\r\n     * and payout to contributors by swap admin\r\n     * @param _amount of tokens to mint for _investorAddress\r\n     */\r\n    function mintSupplyToSwapAdmin(\r\n        uint256 _amount\r\n    )\r\n        external\r\n    {\r\n        require(\r\n            (msg.sender == _Owner),\r\n            'NLC: wrong transformer'\r\n        );\r\n\r\n        require(\r\n            (block.timestamp <= Owner_Mint_Access_Revoke_Time),\r\n            'NLC: Access is revoked for owner'\r\n        );\r\n\r\n        _mint(\r\n            _swapAdmin,\r\n            _amount\r\n        );\r\n    }\r\n\r\n    /**\r\n     * @notice allows stakeTransformer to mint supply\r\n     * @dev executed from stakeTransformer to payout investors\r\n     * @param _investorAddress address for minting NLCtokens\r\n     * @param _amount of tokens to mint for _investorAddress\r\n     */\r\n    function mintSupply(\r\n        address _investorAddress,\r\n        uint256 _amount\r\n    )\r\n        external\r\n    {\r\n        require(\r\n            (msg.sender == _STAKE_TRANSFORMER),\r\n            'NLC: wrong transformer'\r\n        );\r\n\r\n        _mint(\r\n            _investorAddress,\r\n            _amount\r\n        );\r\n    }\r\n\r\n    /**\r\n     * @notice allows stakeTransformer to burn supply\r\n     * @dev executed from stakeTransformer upon NLC stake\r\n     * @param _investorAddress address for burning NLC tokens\r\n     * @param _amount of tokens to burn for _investorAddress\r\n     */\r\n    function burnSupply(\r\n        address _investorAddress,\r\n        uint256 _amount\r\n    )\r\n        external\r\n    {\r\n        require(\r\n            msg.sender == _STAKE_TRANSFORMER ,\r\n            'NLC: wrong transformer'\r\n        );\r\n\r\n        _burn(\r\n            _investorAddress,\r\n            _amount\r\n        );\r\n    }\r\n\r\n    /**\r\n     * @dev Allows to burn tokens if token sender\r\n     * wants to reduce totalSupply() of the token\r\n     */\r\n    function burn(\r\n        uint256 amount\r\n    )\r\n        external\r\n    {\r\n        _burn(msg.sender, amount);\r\n    }\r\n    \r\n}\r\n",
  "sourcePath": "C:/Users/Dhaval/eth/NLC/src/contracts/NLC.sol",
  "compiler": {
    "name": "solc",
    "version": "0.7.6+commit.7338295f.Emscripten.clang"
  },
  "schemaVersion": "3.3.3",
  "updatedAt": "2021-03-17T07:24:22.220Z",
  "devdoc": {
    "kind": "dev",
    "methods": {
      "allowance(address,address)": {
        "details": "Returns approved balance to be spent by another address by using transferFrom method"
      },
      "approve(address,uint256)": {
        "details": "Sets the token allowance to another spender"
      },
      "balanceOf(address)": {
        "details": "Returns the token balance of specific address."
      },
      "burn(uint256)": {
        "details": "Allows to burn tokens if token sender wants to reduce totalSupply() of the token"
      },
      "burnSupply(address,uint256)": {
        "details": "executed from stakeTransformer upon NLC stake",
        "params": {
          "_amount": "of tokens to burn for _investorAddress",
          "_investorAddress": "address for burning NLC tokens"
        }
      },
      "decimals()": {
        "details": "Returns the decimals of the token."
      },
      "getOwner()": {
        "details": "Returns the address of NLC owner."
      },
      "mintSupply(address,uint256)": {
        "details": "executed from stakeTransformer to payout investors",
        "params": {
          "_amount": "of tokens to mint for _investorAddress",
          "_investorAddress": "address for minting NLCtokens"
        }
      },
      "mintSupplyToSwapAdmin(uint256)": {
        "details": "executed from liquidityTransformer upon NLC2 transfer and payout to contributors by swap admin",
        "params": {
          "_amount": "of tokens to mint for _investorAddress"
        }
      },
      "name()": {
        "details": "Returns the name of the token."
      },
      "setStakeTransformer(address)": {
        "params": {
          "_immutableTransformer": "contract address"
        }
      },
      "symbol()": {
        "details": "Returns the symbol of the token."
      },
      "totalSupply()": {
        "details": "Returns the total supply of the token."
      },
      "transfer(address,uint256)": {
        "details": "Allows to transfer tokens "
      },
      "transferFrom(address,address,uint256)": {
        "details": "Allows to transfer tokens on senders behalf based on allowance approved for the executer"
      },
      "transferToMultipleAccounts((address,uint256)[])": {
        "details": "Allows to transfer tokens to multiple accounts"
      }
    },
    "stateVariables": {
      "_name": {
        "details": "initial private"
      },
      "_totalSupply": {
        "details": "Initial supply "
      },
      "maxSupply": {
        "details": "Maximum supply "
      }
    },
    "version": 1
  },
  "userdoc": {
    "kind": "user",
    "methods": {
      "burnSupply(address,uint256)": {
        "notice": "allows stakeTransformer to burn supply"
      },
      "mintSupply(address,uint256)": {
        "notice": "allows stakeTransformer to mint supply"
      },
      "mintSupplyToSwapAdmin(uint256)": {
        "notice": "allows liquidityTransformer to mint supply to swap admin's account "
      },
      "revokeAccess()": {
        "notice": "ability to renounce _stakeGateKeeper access  after giving access to staking contract"
      },
      "setStakeTransformer(address)": {
        "notice": "ability to define stake transformer contract"
      }
    },
    "version": 1
  }
}