{
  "contractName": "StakingToken",
  "abi": [
    {
      "inputs": [
        {
          "internalType": "address",
          "name": "_stakingTokenAddress",
          "type": "address"
        }
      ],
      "stateMutability": "nonpayable",
      "type": "constructor"
    },
    {
      "anonymous": false,
      "inputs": [
        {
          "indexed": true,
          "internalType": "bytes16",
          "name": "stakeID",
          "type": "bytes16"
        },
        {
          "indexed": true,
          "internalType": "address",
          "name": "stakerAddress",
          "type": "address"
        },
        {
          "indexed": false,
          "internalType": "uint256",
          "name": "scrapeAmount",
          "type": "uint256"
        },
        {
          "indexed": false,
          "internalType": "uint256",
          "name": "scrapeDay",
          "type": "uint256"
        }
      ],
      "name": "InterestScraped",
      "type": "event"
    },
    {
      "anonymous": false,
      "inputs": [
        {
          "indexed": true,
          "internalType": "uint256",
          "name": "currentDay",
          "type": "uint256"
        },
        {
          "indexed": false,
          "internalType": "uint256",
          "name": "totalStaked",
          "type": "uint256"
        },
        {
          "indexed": false,
          "internalType": "uint256",
          "name": "STStaked",
          "type": "uint256"
        },
        {
          "indexed": false,
          "internalType": "uint256",
          "name": "MTStaked",
          "type": "uint256"
        },
        {
          "indexed": false,
          "internalType": "uint256",
          "name": "LTStaked",
          "type": "uint256"
        }
      ],
      "name": "NewGlobals",
      "type": "event"
    },
    {
      "anonymous": false,
      "inputs": [
        {
          "indexed": true,
          "internalType": "address",
          "name": "previousOwner",
          "type": "address"
        },
        {
          "indexed": true,
          "internalType": "address",
          "name": "newOwner",
          "type": "address"
        }
      ],
      "name": "OwnershipTransferred",
      "type": "event"
    },
    {
      "anonymous": false,
      "inputs": [
        {
          "indexed": true,
          "internalType": "bytes16",
          "name": "stakeID",
          "type": "bytes16"
        },
        {
          "indexed": true,
          "internalType": "address",
          "name": "stakerAddress",
          "type": "address"
        },
        {
          "indexed": false,
          "internalType": "uint256",
          "name": "stakeType",
          "type": "uint256"
        },
        {
          "indexed": false,
          "internalType": "uint256",
          "name": "stakedAmount",
          "type": "uint256"
        },
        {
          "indexed": false,
          "internalType": "uint256",
          "name": "rewardAmount",
          "type": "uint256"
        },
        {
          "indexed": false,
          "internalType": "uint256",
          "name": "closeDay",
          "type": "uint256"
        }
      ],
      "name": "StakeEnd",
      "type": "event"
    },
    {
      "anonymous": false,
      "inputs": [
        {
          "indexed": true,
          "internalType": "bytes16",
          "name": "stakeID",
          "type": "bytes16"
        },
        {
          "indexed": true,
          "internalType": "address",
          "name": "stakerAddress",
          "type": "address"
        },
        {
          "indexed": false,
          "internalType": "uint256",
          "name": "stakeType",
          "type": "uint256"
        },
        {
          "indexed": false,
          "internalType": "uint256",
          "name": "stakedAmount",
          "type": "uint256"
        },
        {
          "indexed": false,
          "internalType": "uint256",
          "name": "startDay",
          "type": "uint256"
        },
        {
          "indexed": false,
          "internalType": "uint256",
          "name": "lockDays",
          "type": "uint256"
        }
      ],
      "name": "StakeStart",
      "type": "event"
    },
    {
      "inputs": [],
      "name": "REWARD_TOKEN",
      "outputs": [
        {
          "internalType": "contract IBEPToken",
          "name": "",
          "type": "address"
        }
      ],
      "stateMutability": "view",
      "type": "function"
    },
    {
      "inputs": [],
      "name": "STAKING_TOKEN",
      "outputs": [
        {
          "internalType": "contract IBEPToken",
          "name": "",
          "type": "address"
        }
      ],
      "stateMutability": "view",
      "type": "function"
    },
    {
      "inputs": [],
      "name": "_owner",
      "outputs": [
        {
          "internalType": "address",
          "name": "",
          "type": "address"
        }
      ],
      "stateMutability": "view",
      "type": "function"
    },
    {
      "inputs": [],
      "name": "currentDay",
      "outputs": [
        {
          "internalType": "uint256",
          "name": "",
          "type": "uint256"
        }
      ],
      "stateMutability": "view",
      "type": "function"
    },
    {
      "inputs": [],
      "name": "currentMonth",
      "outputs": [
        {
          "internalType": "uint256",
          "name": "",
          "type": "uint256"
        }
      ],
      "stateMutability": "view",
      "type": "function"
    },
    {
      "inputs": [],
      "name": "currentWeek",
      "outputs": [
        {
          "internalType": "uint256",
          "name": "",
          "type": "uint256"
        }
      ],
      "stateMutability": "view",
      "type": "function"
    },
    {
      "inputs": [],
      "name": "currentYear",
      "outputs": [
        {
          "internalType": "uint8",
          "name": "",
          "type": "uint8"
        }
      ],
      "stateMutability": "view",
      "type": "function"
    },
    {
      "inputs": [
        {
          "internalType": "address",
          "name": "x",
          "type": "address"
        },
        {
          "internalType": "uint256",
          "name": "y",
          "type": "uint256"
        },
        {
          "internalType": "bytes1",
          "name": "z",
          "type": "bytes1"
        }
      ],
      "name": "generateID",
      "outputs": [
        {
          "internalType": "bytes16",
          "name": "b",
          "type": "bytes16"
        }
      ],
      "stateMutability": "pure",
      "type": "function"
    },
    {
      "inputs": [],
      "name": "globals",
      "outputs": [
        {
          "internalType": "uint256",
          "name": "totalStaked",
          "type": "uint256"
        },
        {
          "internalType": "uint256",
          "name": "STStaked",
          "type": "uint256"
        },
        {
          "internalType": "uint256",
          "name": "MTStaked",
          "type": "uint256"
        },
        {
          "internalType": "uint256",
          "name": "LTStaked",
          "type": "uint256"
        }
      ],
      "stateMutability": "view",
      "type": "function"
    },
    {
      "inputs": [
        {
          "internalType": "address",
          "name": "_staker",
          "type": "address"
        }
      ],
      "name": "latestStakeID",
      "outputs": [
        {
          "internalType": "bytes16",
          "name": "",
          "type": "bytes16"
        }
      ],
      "stateMutability": "view",
      "type": "function"
    },
    {
      "inputs": [],
      "name": "owner",
      "outputs": [
        {
          "internalType": "address",
          "name": "",
          "type": "address"
        }
      ],
      "stateMutability": "view",
      "type": "function"
    },
    {
      "inputs": [],
      "name": "renounceOwnership",
      "outputs": [],
      "stateMutability": "nonpayable",
      "type": "function"
    },
    {
      "inputs": [],
      "name": "reward_wallet",
      "outputs": [
        {
          "internalType": "address",
          "name": "",
          "type": "address"
        }
      ],
      "stateMutability": "view",
      "type": "function"
    },
    {
      "inputs": [
        {
          "internalType": "address",
          "name": "",
          "type": "address"
        },
        {
          "internalType": "bytes16",
          "name": "",
          "type": "bytes16"
        }
      ],
      "name": "scrapes",
      "outputs": [
        {
          "internalType": "uint256",
          "name": "",
          "type": "uint256"
        }
      ],
      "stateMutability": "view",
      "type": "function"
    },
    {
      "inputs": [
        {
          "internalType": "enum Declaration.StakeType",
          "name": "",
          "type": "uint8"
        }
      ],
      "name": "stakeCaps",
      "outputs": [
        {
          "internalType": "uint256",
          "name": "",
          "type": "uint256"
        }
      ],
      "stateMutability": "view",
      "type": "function"
    },
    {
      "inputs": [
        {
          "internalType": "address",
          "name": "",
          "type": "address"
        }
      ],
      "name": "stakeCount",
      "outputs": [
        {
          "internalType": "uint256",
          "name": "",
          "type": "uint256"
        }
      ],
      "stateMutability": "view",
      "type": "function"
    },
    {
      "inputs": [
        {
          "internalType": "address",
          "name": "",
          "type": "address"
        },
        {
          "internalType": "bytes16",
          "name": "",
          "type": "bytes16"
        }
      ],
      "name": "stakes",
      "outputs": [
        {
          "internalType": "uint256",
          "name": "stakedAmount",
          "type": "uint256"
        },
        {
          "internalType": "uint256",
          "name": "rewardAmount",
          "type": "uint256"
        },
        {
          "internalType": "enum Declaration.StakeType",
          "name": "stakeType",
          "type": "uint8"
        },
        {
          "internalType": "uint256",
          "name": "startDay",
          "type": "uint256"
        },
        {
          "internalType": "uint256",
          "name": "lockDays",
          "type": "uint256"
        },
        {
          "internalType": "uint256",
          "name": "finalDay",
          "type": "uint256"
        },
        {
          "internalType": "uint256",
          "name": "closeDay",
          "type": "uint256"
        },
        {
          "internalType": "uint256",
          "name": "scrapeDay",
          "type": "uint256"
        },
        {
          "internalType": "bool",
          "name": "isActive",
          "type": "bool"
        }
      ],
      "stateMutability": "view",
      "type": "function"
    },
    {
      "inputs": [
        {
          "internalType": "address",
          "name": "_staker",
          "type": "address"
        },
        {
          "internalType": "uint256",
          "name": "_offset",
          "type": "uint256"
        },
        {
          "internalType": "uint256",
          "name": "_length",
          "type": "uint256"
        }
      ],
      "name": "stakesPagination",
      "outputs": [
        {
          "internalType": "bytes16[]",
          "name": "_stakes",
          "type": "bytes16[]"
        }
      ],
      "stateMutability": "view",
      "type": "function"
    },
    {
      "inputs": [
        {
          "internalType": "address",
          "name": "newOwner",
          "type": "address"
        }
      ],
      "name": "transferOwnership",
      "outputs": [],
      "stateMutability": "nonpayable",
      "type": "function"
    },
    {
      "stateMutability": "payable",
      "type": "receive"
    },
    {
      "inputs": [
        {
          "internalType": "uint256",
          "name": "_stakedAmount",
          "type": "uint256"
        },
        {
          "internalType": "enum Declaration.StakeType",
          "name": "_stakeType",
          "type": "uint8"
        }
      ],
      "name": "createStake",
      "outputs": [
        {
          "internalType": "bytes16",
          "name": "",
          "type": "bytes16"
        },
        {
          "internalType": "uint256",
          "name": "",
          "type": "uint256"
        }
      ],
      "stateMutability": "nonpayable",
      "type": "function"
    },
    {
      "inputs": [
        {
          "internalType": "bytes16",
          "name": "_stakeID",
          "type": "bytes16"
        }
      ],
      "name": "endStake",
      "outputs": [
        {
          "internalType": "uint256",
          "name": "",
          "type": "uint256"
        }
      ],
      "stateMutability": "nonpayable",
      "type": "function"
    },
    {
      "inputs": [
        {
          "internalType": "bytes16",
          "name": "_stakeID",
          "type": "bytes16"
        }
      ],
      "name": "scrapeReward",
      "outputs": [
        {
          "internalType": "uint256",
          "name": "scrapeDay",
          "type": "uint256"
        },
        {
          "internalType": "uint256",
          "name": "scrapeAmount",
          "type": "uint256"
        }
      ],
      "stateMutability": "nonpayable",
      "type": "function"
    },
    {
      "inputs": [
        {
          "internalType": "address",
          "name": "_walletAddress",
          "type": "address"
        }
      ],
      "name": "updateRewardWalletAddress",
      "outputs": [],
      "stateMutability": "nonpayable",
      "type": "function"
    },
    {
      "inputs": [
        {
          "internalType": "address",
          "name": "_staker",
          "type": "address"
        },
        {
          "internalType": "bytes16",
          "name": "_stakeID",
          "type": "bytes16"
        }
      ],
      "name": "checkMatureStake",
      "outputs": [
        {
          "internalType": "bool",
          "name": "isMature",
          "type": "bool"
        }
      ],
      "stateMutability": "view",
      "type": "function"
    },
    {
      "inputs": [
        {
          "internalType": "address",
          "name": "_staker",
          "type": "address"
        },
        {
          "internalType": "bytes16",
          "name": "_stakeID",
          "type": "bytes16"
        }
      ],
      "name": "checkStakeByID",
      "outputs": [
        {
          "internalType": "uint256",
          "name": "startDay",
          "type": "uint256"
        },
        {
          "internalType": "uint256",
          "name": "lockDays",
          "type": "uint256"
        },
        {
          "internalType": "uint256",
          "name": "finalDay",
          "type": "uint256"
        },
        {
          "internalType": "uint256",
          "name": "closeDay",
          "type": "uint256"
        },
        {
          "internalType": "uint256",
          "name": "scrapeDay",
          "type": "uint256"
        },
        {
          "internalType": "enum Declaration.StakeType",
          "name": "stakeType",
          "type": "uint8"
        },
        {
          "internalType": "uint256",
          "name": "stakedAmount",
          "type": "uint256"
        },
        {
          "internalType": "uint256",
          "name": "rewardAmount",
          "type": "uint256"
        },
        {
          "internalType": "bool",
          "name": "isActive",
          "type": "bool"
        },
        {
          "internalType": "bool",
          "name": "isMature",
          "type": "bool"
        }
      ],
      "stateMutability": "view",
      "type": "function"
    },
    {
      "inputs": [
        {
          "internalType": "address",
          "name": "_staker",
          "type": "address"
        },
        {
          "internalType": "bytes16",
          "name": "_stakeID",
          "type": "bytes16"
        }
      ],
      "name": "getPendingReward",
      "outputs": [
        {
          "internalType": "uint256",
          "name": "rewardAmount",
          "type": "uint256"
        }
      ],
      "stateMutability": "view",
      "type": "function"
    },
    {
      "inputs": [],
      "name": "getStakeCount",
      "outputs": [
        {
          "internalType": "uint256",
          "name": "STStakeCount",
          "type": "uint256"
        },
        {
          "internalType": "uint256",
          "name": "MTStakeCount",
          "type": "uint256"
        },
        {
          "internalType": "uint256",
          "name": "LTStakeCount",
          "type": "uint256"
        }
      ],
      "stateMutability": "view",
      "type": "function"
    },
    {
      "inputs": [],
      "name": "getTotalStakedToken",
      "outputs": [
        {
          "internalType": "uint256",
          "name": "",
          "type": "uint256"
        }
      ],
      "stateMutability": "view",
      "type": "function"
    }
  ],
  "bytecode": "0x60a06040527355a294336666ed7572c8de527fc2ed1f46b30edf600460006101000a81548173ffffffffffffffffffffffffffffffffffffffff021916908373ffffffffffffffffffffffffffffffffffffffff1602179055503480156200006657600080fd5b5060405162003dd138038062003dd1833981810160405260208110156200008c57600080fd5b81019080805190602001909291905050508080600760006101000a81548173ffffffffffffffffffffffffffffffffffffffff021916908373ffffffffffffffffffffffffffffffffffffffff16021790555080600660006101000a81548173ffffffffffffffffffffffffffffffffffffffff021916908373ffffffffffffffffffffffffffffffffffffffff1602179055506361049280608081815250506005600c60008060028111156200013f57fe5b60028111156200014b57fe5b815260200190815260200160002060008060ff1660ff168152602001908152602001600020819055506005600c60008060028111156200018757fe5b60028111156200019357fe5b81526020019081526020016000206000600160ff1660ff16815260200190815260200160002081905550600a600c600060016002811115620001d157fe5b6002811115620001dd57fe5b815260200190815260200160002060008060ff1660ff16815260200190815260200160002081905550600a600c6000600160028111156200021a57fe5b60028111156200022657fe5b81526020019081526020016000206000600160ff1660ff168152602001908152602001600020819055506005600c6000600160028111156200026457fe5b60028111156200027057fe5b81526020019081526020016000206000600260ff1660ff168152602001908152602001600020819055506014600c6000600280811115620002ad57fe5b6002811115620002b957fe5b815260200190815260200160002060008060ff1660ff16815260200190815260200160002081905550600f600c6000600280811115620002f557fe5b60028111156200030157fe5b81526020019081526020016000206000600160ff1660ff16815260200190815260200160002081905550600a600c60006002808111156200033e57fe5b60028111156200034a57fe5b81526020019081526020016000206000600260ff1660ff168152602001908152602001600020819055506005600c60006002808111156200038757fe5b60028111156200039357fe5b81526020019081526020016000206000600360ff1660ff16815260200190815260200160002081905550506000620003d06200047660201b60201c565b905080600560006101000a81548173ffffffffffffffffffffffffffffffffffffffff021916908373ffffffffffffffffffffffffffffffffffffffff1602179055508073ffffffffffffffffffffffffffffffffffffffff16600073ffffffffffffffffffffffffffffffffffffffff167f8be0079c531659141344cd1fd0a4f28419497f9722a3daafe3b4186f6b6457e060405160405180910390a350506200047e565b600033905090565b6080516139336200049e600039806110b5528061373f52506139336000f3fe6080604052600436106101bb5760003560e01c80638da5cb5b116100ec578063be9215e81161008a578063d825bbd711610064578063d825bbd714610a18578063e1d033e914610a81578063e9917c0714610b48578063f2fde38b14610bbe576101c2565b8063be9215e8146108d8578063bf58f6d21461092a578063c3124525146109d8576101c2565b8063a4ed0550116100c6578063a4ed05501461070e578063ae3d1de2146107de578063b2bdfa7b14610856578063b8369d3514610897576101c2565b80638da5cb5b1461062a57806399248ea71461066b57806399c2def4146106ac576101c2565b8063330d4e1d11610159578063715018a611610133578063715018a61461051357806374a655531461052a578063779e2e181461057b578063862a4d47146105ff576101c2565b8063330d4e1d1461043b578063423eea07146104bd5780635c9302c9146104e8576101c2565b806320429fac1161019557806320429fac1461026157806323672d8a146102e35780632e4ab48a1461039d57806333060d90146103d6576101c2565b80630479d644146101c757806306575c89146102085780630b5a006b14610233576101c2565b366101c257005b600080fd5b3480156101d357600080fd5b506101dc610c0f565b604051808273ffffffffffffffffffffffffffffffffffffffff16815260200191505060405180910390f35b34801561021457600080fd5b5061021d610c35565b6040518082815260200191505060405180910390f35b34801561023f57600080fd5b50610248610c52565b604051808260ff16815260200191505060405180910390f35b34801561026d57600080fd5b506102cd6004803603604081101561028457600080fd5b81019080803573ffffffffffffffffffffffffffffffffffffffff16906020019092919080356fffffffffffffffffffffffffffffffff19169060200190929190505050610c75565b6040518082815260200191505060405180910390f35b3480156102ef57600080fd5b506103466004803603606081101561030657600080fd5b81019080803573ffffffffffffffffffffffffffffffffffffffff1690602001909291908035906020019092919080359060200190929190505050610c9a565b6040518080602001828103825283818151815260200191508051906020019060200280838360005b8381101561038957808201518184015260208101905061036e565b505050509050019250505060405180910390f35b3480156103a957600080fd5b506103b2610ef1565b60405180848152602001838152602001828152602001935050505060405180910390f35b3480156103e257600080fd5b50610425600480360360208110156103f957600080fd5b81019080803573ffffffffffffffffffffffffffffffffffffffff169060200190929190505050610f80565b6040518082815260200191505060405180910390f35b34801561044757600080fd5b506104a76004803603604081101561045e57600080fd5b81019080803573ffffffffffffffffffffffffffffffffffffffff16906020019092919080356fffffffffffffffffffffffffffffffff19169060200190929190505050610f98565b6040518082815260200191505060405180910390f35b3480156104c957600080fd5b506104d26110a5565b6040518082815260200191505060405180910390f35b3480156104f457600080fd5b506104fd6110b1565b6040518082815260200191505060405180910390f35b34801561051f57600080fd5b506105286110f7565b005b34801561053657600080fd5b506105796004803603602081101561054d57600080fd5b81019080803573ffffffffffffffffffffffffffffffffffffffff169060200190929190505050611282565b005b34801561058757600080fd5b506105e76004803603604081101561059e57600080fd5b81019080803573ffffffffffffffffffffffffffffffffffffffff16906020019092919080356fffffffffffffffffffffffffffffffff1916906020019092919050505061140d565b60405180821515815260200191505060405180910390f35b34801561060b57600080fd5b50610614611534565b6040518082815260200191505060405180910390f35b34801561063657600080fd5b5061063f611554565b604051808273ffffffffffffffffffffffffffffffffffffffff16815260200191505060405180910390f35b34801561067757600080fd5b5061068061157e565b604051808273ffffffffffffffffffffffffffffffffffffffff16815260200191505060405180910390f35b3480156106b857600080fd5b506106f8600480360360208110156106cf57600080fd5b8101908080356fffffffffffffffffffffffffffffffff191690602001909291905050506115a4565b6040518082815260200191505060405180910390f35b34801561071a57600080fd5b5061077a6004803603604081101561073157600080fd5b81019080803573ffffffffffffffffffffffffffffffffffffffff16906020019092919080356fffffffffffffffffffffffffffffffff19169060200190929190505050611758565b604051808b81526020018a81526020018981526020018881526020018781526020018660028111156107a857fe5b8152602001858152602001848152602001831515815260200182151581526020019a505050505050505050505060405180910390f35b3480156107ea57600080fd5b5061082d6004803603602081101561080157600080fd5b81019080803573ffffffffffffffffffffffffffffffffffffffff1690602001909291905050506118db565b60405180826fffffffffffffffffffffffffffffffff1916815260200191505060405180910390f35b34801561086257600080fd5b5061086b611996565b604051808273ffffffffffffffffffffffffffffffffffffffff16815260200191505060405180910390f35b3480156108a357600080fd5b506108ac6119bc565b604051808273ffffffffffffffffffffffffffffffffffffffff16815260200191505060405180910390f35b3480156108e457600080fd5b50610914600480360360208110156108fb57600080fd5b81019080803560ff1690602001909291905050506119e2565b6040518082815260200191505060405180910390f35b34801561093657600080fd5b506109af6004803603606081101561094d57600080fd5b81019080803573ffffffffffffffffffffffffffffffffffffffff1690602001909291908035906020019092919080357effffffffffffffffffffffffffffffffffffffffffffffffffffffffffffff191690602001909291905050506119fa565b60405180826fffffffffffffffffffffffffffffffff1916815260200191505060405180910390f35b3480156109e457600080fd5b506109ed611a82565b6040518085815260200184815260200183815260200182815260200194505050505060405180910390f35b348015610a2457600080fd5b50610a6460048036036020811015610a3b57600080fd5b8101908080356fffffffffffffffffffffffffffffffff19169060200190929190505050611aa0565b604051808381526020018281526020019250505060405180910390f35b348015610a8d57600080fd5b50610aed60048036036040811015610aa457600080fd5b81019080803573ffffffffffffffffffffffffffffffffffffffff16906020019092919080356fffffffffffffffffffffffffffffffff19169060200190929190505050612102565b604051808a8152602001898152602001886002811115610b0957fe5b81526020018781526020018681526020018581526020018481526020018381526020018215158152602001995050505050505050505060405180910390f35b348015610b5457600080fd5b50610b8e60048036036040811015610b6b57600080fd5b8101908080359060200190929190803560ff169060200190929190505050612177565b60405180836fffffffffffffffffffffffffffffffff191681526020018281526020019250505060405180910390f35b348015610bca57600080fd5b50610c0d60048036036020811015610be157600080fd5b81019080803573ffffffffffffffffffffffffffffffffffffffff1690602001909291905050506124bc565b005b600760009054906101000a900473ffffffffffffffffffffffffffffffffffffffff1681565b6000600761ffff16610c456110b1565b81610c4c57fe5b04905090565b6000600c60046007020261ffff16610c686110b1565b81610c6f57fe5b04905090565b6009602052816000526040600020602052806000526040600020600091509150505481565b606060008084118015610ceb575083600860008773ffffffffffffffffffffffffffffffffffffffff1673ffffffffffffffffffffffffffffffffffffffff16815260200190815260200160002054115b610d3457600860008673ffffffffffffffffffffffffffffffffffffffff1673ffffffffffffffffffffffffffffffffffffffff16815260200190815260200160002054610d77565b83600860008773ffffffffffffffffffffffffffffffffffffffff1673ffffffffffffffffffffffffffffffffffffffff16815260200190815260200160002054035b905060008084118015610d8957508382115b610d94576000610d98565b8382035b9050600081830367ffffffffffffffff81118015610db557600080fd5b50604051908082528060200260200182016040528015610de45781602001602082028036833780820191505090505b50935060008390505b82811115610ee6576000610e098960018403600160f81b6119fa565b90506000600a60008b73ffffffffffffffffffffffffffffffffffffffff1673ffffffffffffffffffffffffffffffffffffffff1681526020019081526020016000206000836fffffffffffffffffffffffffffffffff19166fffffffffffffffffffffffffffffffff19168152602001908152602001600020600001541115610ed75780868481518110610e9a57fe5b60200260200101906fffffffffffffffffffffffffffffffff191690816fffffffffffffffffffffffffffffffff19168152505082806001019350505b50808060019003915050610ded565b505050509392505050565b6000806000600b6000806002811115610f0657fe5b6002811115610f1157fe5b8152602001908152602001600020549250600b600060016002811115610f3357fe5b6002811115610f3e57fe5b8152602001908152602001600020549150600b6000600280811115610f5f57fe5b6002811115610f6a57fe5b8152602001908152602001600020549050909192565b60086020528060005260406000206000915090505481565b6000600a60008473ffffffffffffffffffffffffffffffffffffffff1673ffffffffffffffffffffffffffffffffffffffff1681526020019081526020016000206000836fffffffffffffffffffffffffffffffff19166fffffffffffffffffffffffffffffffff1916815260200190815260200160002060080160009054906101000a900460ff16611093576040517f08c379a00000000000000000000000000000000000000000000000000000000081526004018080602001828103825260188152602001807f4e4c433a204e6f7420616e20616374697665207374616b65000000000000000081525060200191505060405180910390fd5b61109d8383612592565b905092915050565b60008060000154905090565b60007f00000000000000000000000000000000000000000000000000000000000000006110dc612c19565b10156110e95760006110f2565b6110f1612c21565b5b905090565b6110ff612c38565b73ffffffffffffffffffffffffffffffffffffffff16600560009054906101000a900473ffffffffffffffffffffffffffffffffffffffff1673ffffffffffffffffffffffffffffffffffffffff16146111c1576040517f08c379a00000000000000000000000000000000000000000000000000000000081526004018080602001828103825260208152602001807f4f776e61626c653a2063616c6c6572206973206e6f7420746865206f776e657281525060200191505060405180910390fd5b600073ffffffffffffffffffffffffffffffffffffffff16600560009054906101000a900473ffffffffffffffffffffffffffffffffffffffff1673ffffffffffffffffffffffffffffffffffffffff167f8be0079c531659141344cd1fd0a4f28419497f9722a3daafe3b4186f6b6457e060405160405180910390a36000600560006101000a81548173ffffffffffffffffffffffffffffffffffffffff021916908373ffffffffffffffffffffffffffffffffffffffff160217905550565b61128a612c38565b73ffffffffffffffffffffffffffffffffffffffff16600560009054906101000a900473ffffffffffffffffffffffffffffffffffffffff1673ffffffffffffffffffffffffffffffffffffffff161461134c576040517f08c379a00000000000000000000000000000000000000000000000000000000081526004018080602001828103825260208152602001807f4f776e61626c653a2063616c6c6572206973206e6f7420746865206f776e657281525060200191505060405180910390fd5b8061135681612c40565b6113c8576040517f08c379a00000000000000000000000000000000000000000000000000000000081526004018080602001828103825260118152602001807f4e6f742076616c6964206164647265737300000000000000000000000000000081525060200191505060405180910390fd5b81600460006101000a81548173ffffffffffffffffffffffffffffffffffffffff021916908373ffffffffffffffffffffffffffffffffffffffff1602179055505050565b600080600a60008573ffffffffffffffffffffffffffffffffffffffff1673ffffffffffffffffffffffffffffffffffffffff1681526020019081526020016000206000846fffffffffffffffffffffffffffffffff19166fffffffffffffffffffffffffffffffff191681526020019081526020016000206040518061012001604052908160008201548152602001600182015481526020016002820160009054906101000a900460ff1660028111156114c457fe5b60028111156114cf57fe5b815260200160038201548152602001600482015481526020016005820154815260200160068201548152602001600782015481526020016008820160009054906101000a900460ff161515151581525050905061152b81612c79565b91505092915050565b6000600460070261ffff166115476110b1565b8161154e57fe5b04905090565b6000600560009054906101000a900473ffffffffffffffffffffffffffffffffffffffff16905090565b600660009054906101000a900473ffffffffffffffffffffffffffffffffffffffff1681565b6000806115b86115b2612c38565b84612c91565b6040518061012001604052908160008201548152602001600182015481526020016002820160009054906101000a900460ff1660028111156115f657fe5b600281111561160157fe5b815260200160038201548152602001600482015481526020016005820154815260200160068201548152602001600782015481526020016008820160009054906101000a900460ff16151515158152505090506116718160400151600281111561166757fe5b826000015161303d565b600b60008260400151600281111561168557fe5b600281111561169057fe5b815260200190815260200160002060008154809291906001900391905055506116b7612c38565b73ffffffffffffffffffffffffffffffffffffffff16836fffffffffffffffffffffffffffffffff19167f2305b4e2f91018fe85c7f544f87660884591d339466dedf2f58d3c630b858d878360400151600281111561171257fe5b846000015185602001518660c001516040518085815260200184815260200183815260200182815260200194505050505060405180910390a38060200151915050919050565b6000806000806000806000806000806000600a60008e73ffffffffffffffffffffffffffffffffffffffff1673ffffffffffffffffffffffffffffffffffffffff16815260200190815260200160002060008d6fffffffffffffffffffffffffffffffff19166fffffffffffffffffffffffffffffffff191681526020019081526020016000206040518061012001604052908160008201548152602001600182015481526020016002820160009054906101000a900460ff16600281111561181d57fe5b600281111561182857fe5b815260200160038201548152602001600482015481526020016005820154815260200160068201548152602001600782015481526020016008820160009054906101000a900460ff161515151581525050905080606001519a50806080015199508060a0015198508060c0015197508060e00151965080604001519550806000015194506118b68d8d612592565b935080610100015192506118c981612c79565b9150509295989b9194979a5092959850565b600080600860008473ffffffffffffffffffffffffffffffffffffffff1673ffffffffffffffffffffffffffffffffffffffff1681526020019081526020016000205414611989576119848261197a6001600860008773ffffffffffffffffffffffffffffffffffffffff1673ffffffffffffffffffffffffffffffffffffffff168152602001908152602001600020546130fe90919063ffffffff16565b600160f81b6119fa565b61198f565b600060801b5b9050919050565b600560009054906101000a900473ffffffffffffffffffffffffffffffffffffffff1681565b600460009054906101000a900473ffffffffffffffffffffffffffffffffffffffff1681565b600b6020528060005260406000206000915090505481565b6000611a79848484604051602001808473ffffffffffffffffffffffffffffffffffffffff1660601b8152601401838152602001827effffffffffffffffffffffffffffffffffffffffffffffffffffffffffffff1916815260010193505050506040516020818303038152906040528051906020012060001c61311e565b90509392505050565b60008060000154908060010154908060020154908060030154905084565b600080600a6000611aaf612c38565b73ffffffffffffffffffffffffffffffffffffffff1673ffffffffffffffffffffffffffffffffffffffff1681526020019081526020016000206000846fffffffffffffffffffffffffffffffff19166fffffffffffffffffffffffffffffffff1916815260200190815260200160002060080160009054906101000a900460ff16611ba3576040517f08c379a00000000000000000000000000000000000000000000000000000000081526004018080602001828103825260188152602001807f4e4c433a204e6f7420616e20616374697665207374616b65000000000000000081525060200191505060405180910390fd5b6000600a6000611bb1612c38565b73ffffffffffffffffffffffffffffffffffffffff1673ffffffffffffffffffffffffffffffffffffffff1681526020019081526020016000206000856fffffffffffffffffffffffffffffffff19166fffffffffffffffffffffffffffffffff191681526020019081526020016000206040518061012001604052908160008201548152602001600182015481526020016002820160009054906101000a900460ff166002811115611c6057fe5b6002811115611c6b57fe5b815260200160038201548152602001600482015481526020016005820154815260200160068201548152602001600782015481526020016008820160009054906101000a900460ff16151515158152505090508060a00151611ccb6110b1565b1015611d22576040517f08c379a000000000000000000000000000000000000000000000000000000000815260040180806020018281038252602c8152602001806138d2602c913960400191505060405180910390fd5b611d2a6110b1565b9250611d3d611d37612c38565b85612592565b9150611dcf8260096000611d4f612c38565b73ffffffffffffffffffffffffffffffffffffffff1673ffffffffffffffffffffffffffffffffffffffff1681526020019081526020016000206000876fffffffffffffffffffffffffffffffff19166fffffffffffffffffffffffffffffffff191681526020019081526020016000205461312b90919063ffffffff16565b60096000611ddb612c38565b73ffffffffffffffffffffffffffffffffffffffff1673ffffffffffffffffffffffffffffffffffffffff1681526020019081526020016000206000866fffffffffffffffffffffffffffffffff19166fffffffffffffffffffffffffffffffff1916815260200190815260200160002081905550828160e001818152505080600a6000611e67612c38565b73ffffffffffffffffffffffffffffffffffffffff1673ffffffffffffffffffffffffffffffffffffffff1681526020019081526020016000206000866fffffffffffffffffffffffffffffffff19166fffffffffffffffffffffffffffffffff19168152602001908152602001600020600082015181600001556020820151816001015560408201518160020160006101000a81548160ff02191690836002811115611f1057fe5b0217905550606082015181600301556080820151816004015560a0820151816005015560c0820151816006015560e082015181600701556101008201518160080160006101000a81548160ff021916908315150217905550905050600082111561208b57600660009054906101000a900473ffffffffffffffffffffffffffffffffffffffff1673ffffffffffffffffffffffffffffffffffffffff166323b872dd600460009054906101000a900473ffffffffffffffffffffffffffffffffffffffff16611fdd612c38565b856040518463ffffffff1660e01b8152600401808473ffffffffffffffffffffffffffffffffffffffff1681526020018373ffffffffffffffffffffffffffffffffffffffff1681526020018281526020019350505050602060405180830381600087803b15801561204e57600080fd5b505af1158015612062573d6000803e3d6000fd5b505050506040513d602081101561207857600080fd5b8101908080519060200190929190505050505b612093612c38565b73ffffffffffffffffffffffffffffffffffffffff16846fffffffffffffffffffffffffffffffff19167fb5650198f86b782789ccc408b7a9190a965fdb5ca29a739dd0de97a7a7d7ef808486604051808381526020018281526020019250505060405180910390a350915091565b600a602052816000526040600020602052806000526040600020600091509150508060000154908060010154908060020160009054906101000a900460ff16908060030154908060040154908060050154908060060154908060070154908060080160009054906101000a900460ff16905089565b600080600080600281111561218857fe5b84600281111561219457fe5b14156121a757600761ffff16905061227a565b600160028111156121b457fe5b8460028111156121c057fe5b14156121d957600460070260010261ffff169050612279565b6002808111156121e557fe5b8460028111156121f157fe5b141561220a57600460070260030261ffff169050612278565b6040517f08c379a000000000000000000000000000000000000000000000000000000000815260040180806020018281038252601a8152602001807f4e4c433a205f5374616b655479706520697320496e76616c696400000000000081525060200191505060405180910390fd5b5b5b600080600061229261228a612c38565b89868a61314a565b92509250925082600a60006122a5612c38565b73ffffffffffffffffffffffffffffffffffffffff1673ffffffffffffffffffffffffffffffffffffffff1681526020019081526020016000206000846fffffffffffffffffffffffffffffffff19166fffffffffffffffffffffffffffffffff19168152602001908152602001600020600082015181600001556020820151816001015560408201518160020160006101000a81548160ff0219169083600281111561234e57fe5b0217905550606082015181600301556080820151816004015560a0820151816005015560c0820151816006015560e082015181600701556101008201518160080160006101000a81548160ff0219169083151502179055509050506123b96123b4612c38565b6133ef565b6123d6836040015160028111156123cc57fe5b8460000151613478565b600b60008860028111156123e657fe5b60028111156123f157fe5b815260200190815260200160002060008154809291906001019190505550612417612c38565b73ffffffffffffffffffffffffffffffffffffffff16826fffffffffffffffffffffffffffffffff19167f139afc8e9a5277c5efdddded84ecb6ff00b64e8ec1058084fd7fef46d7e6f0de8560400151600281111561247257fe5b8660000151876060015188608001516040518085815260200184815260200183815260200182815260200194505050505060405180910390a3818195509550505050509250929050565b6124c4612c38565b73ffffffffffffffffffffffffffffffffffffffff16600560009054906101000a900473ffffffffffffffffffffffffffffffffffffffff1673ffffffffffffffffffffffffffffffffffffffff1614612586576040517f08c379a00000000000000000000000000000000000000000000000000000000081526004018080602001828103825260208152602001807f4f776e61626c653a2063616c6c6572206973206e6f7420746865206f776e657281525060200191505060405180910390fd5b61258f8161352a565b50565b600080600a60008573ffffffffffffffffffffffffffffffffffffffff1673ffffffffffffffffffffffffffffffffffffffff1681526020019081526020016000206000846fffffffffffffffffffffffffffffffff19166fffffffffffffffffffffffffffffffff191681526020019081526020016000206040518061012001604052908160008201548152602001600182015481526020016002820160009054906101000a900460ff16600281111561264957fe5b600281111561265457fe5b815260200160038201548152602001600482015481526020016005820154815260200160068201548152602001600782015481526020016008820160009054906101000a900460ff161515151581525050905060006126b282612c79565b15806126d75750600460ff16600c6004600702020261ffff166126d483613670565b10155b806126e55750816101000151155b156126f557600092505050612c13565b600160ff16612702610c52565b60ff1610612b5457600160ff16600c6004600702020261ffff1661272583613670565b116128055761274d61273683613670565b600160ff16600c6004600702020261ffff16613694565b905060008114612804576127e46064600c6004600702020261ffff166127d6836127c8600c60008860400151600281111561278457fe5b600281111561278f57fe5b815260200190815260200160002060008060ff1660ff1681526020019081526020016000205487600001516136c090919063ffffffff16565b6136c090919063ffffffff16565b61370590919063ffffffff16565b83019250600160ff16600c6004600702020261ffff168260e00181815250505b5b600260ff16612812610c52565b60ff161015801561283c5750600260ff16600c6004600702020261ffff1661283983613670565b11155b1561291d5761286461284d83613670565b600260ff16600c6004600702020261ffff16613694565b90506000811461291c576128fc6064600c6004600702020261ffff166128ee836128e0600c60008860400151600281111561289b57fe5b60028111156128a657fe5b81526020019081526020016000206000600160ff1660ff1681526020019081526020016000205487600001516136c090919063ffffffff16565b6136c090919063ffffffff16565b61370590919063ffffffff16565b83019250600260ff16600c6004600702020261ffff168260e00181815250505b5b600360ff1661292a610c52565b60ff16101580156129545750600360ff16600c6004600702020261ffff1661295183613670565b11155b15612a355761297c61296583613670565b600360ff16600c6004600702020261ffff16613694565b905060008114612a3457612a146064600c6004600702020261ffff16612a06836129f8600c6000886040015160028111156129b357fe5b60028111156129be57fe5b81526020019081526020016000206000600260ff1660ff1681526020019081526020016000205487600001516136c090919063ffffffff16565b6136c090919063ffffffff16565b61370590919063ffffffff16565b83019250600360ff16600c6004600702020261ffff168260e00181815250505b5b600460ff16612a42610c52565b60ff1610158015612a6c5750600460ff16600c6004600702020261ffff16612a6983613670565b11155b15612b5357612a94612a7d83613670565b600460ff16600c6004600702020261ffff16613694565b905060008114612b5257612b2c6064600c6004600702020261ffff16612b1e83612b10600c600088604001516002811115612acb57fe5b6002811115612ad657fe5b81526020019081526020016000206000600360ff1660ff1681526020019081526020016000205487600001516136c090919063ffffffff16565b6136c090919063ffffffff16565b61370590919063ffffffff16565b83019250600460ff16600c6004600702020261ffff168260e00181815250505050612c13565b5b5b612b6d612b6083613670565b612b686110b1565b613694565b905060008114612c1057612c0b6064600c6004600702020261ffff16612bfd83612bef600c600088604001516002811115612ba457fe5b6002811115612baf57fe5b81526020019081526020016000206000612bc7610c52565b60ff1660ff1681526020019081526020016000205487600001516136c090919063ffffffff16565b6136c090919063ffffffff16565b61370590919063ffffffff16565b830192505b50505b92915050565b600042905090565b6000612c33612c2e612c19565b613731565b905090565b600033905090565b60008073ffffffffffffffffffffffffffffffffffffffff168273ffffffffffffffffffffffffffffffffffffffff1614159050919050565b60008160a00151612c886110b1565b10159050919050565b6000600a60008473ffffffffffffffffffffffffffffffffffffffff1673ffffffffffffffffffffffffffffffffffffffff1681526020019081526020016000206000836fffffffffffffffffffffffffffffffff19166fffffffffffffffffffffffffffffffff1916815260200190815260200160002060080160009054906101000a900460ff16612d8c576040517f08c379a00000000000000000000000000000000000000000000000000000000081526004018080602001828103825260188152602001807f4e4c433a204e6f7420616e20616374697665207374616b65000000000000000081525060200191505060405180910390fd5b600a60008473ffffffffffffffffffffffffffffffffffffffff1673ffffffffffffffffffffffffffffffffffffffff1681526020019081526020016000206000836fffffffffffffffffffffffffffffffff19166fffffffffffffffffffffffffffffffff191681526020019081526020016000209050612e0c6110b1565b8160060181905550612e1e8383612592565b816001018190555060008160080160006101000a81548160ff021916908315150217905550600760009054906101000a900473ffffffffffffffffffffffffffffffffffffffff1673ffffffffffffffffffffffffffffffffffffffff1663a9059cbb8483600001546040518363ffffffff1660e01b8152600401808373ffffffffffffffffffffffffffffffffffffffff16815260200182815260200192505050602060405180830381600087803b158015612eda57600080fd5b505af1158015612eee573d6000803e3d6000fd5b505050506040513d6020811015612f0457600080fd5b81019080805190602001909291905050505060008160010154111561303757600660009054906101000a900473ffffffffffffffffffffffffffffffffffffffff1673ffffffffffffffffffffffffffffffffffffffff166323b872dd600460009054906101000a900473ffffffffffffffffffffffffffffffffffffffff168584600101546040518463ffffffff1660e01b8152600401808473ffffffffffffffffffffffffffffffffffffffff1681526020018373ffffffffffffffffffffffffffffffffffffffff1681526020018281526020019350505050602060405180830381600087803b158015612ffa57600080fd5b505af115801561300e573d6000803e3d6000fd5b505050506040513d602081101561302457600080fd5b8101908080519060200190929190505050505b92915050565b8060008001541161304f576000613057565b806000800154035b600080018190555060008260ff16141561309557806000600101541161307e576000613087565b80600060010154035b6000600101819055506130f2565b60018260ff1614156130cb5780600060020154116130b45760006130bd565b80600060020154035b6000600201819055506130f1565b80600060030154116130de5760006130e7565b80600060030154035b6000600301819055505b5b6130fa61376f565b5050565b60008282111561310d57600080fd5b600082840390508091505092915050565b60008160001b9050919050565b60008082840190508381101561314057600080fd5b8091505092915050565b61315261382b565b60008085600760009054906101000a900473ffffffffffffffffffffffffffffffffffffffff1673ffffffffffffffffffffffffffffffffffffffff166370a08231896040518263ffffffff1660e01b8152600401808273ffffffffffffffffffffffffffffffffffffffff16815260200191505060206040518083038186803b1580156131df57600080fd5b505afa1580156131f3573d6000803e3d6000fd5b505050506040513d602081101561320957600080fd5b81019080805190602001909291905050501015613271576040517f08c379a00000000000000000000000000000000000000000000000000000000081526004018080602001828103825260278152602001806138ab6027913960400191505060405180910390fd5b600760009054906101000a900473ffffffffffffffffffffffffffffffffffffffff1673ffffffffffffffffffffffffffffffffffffffff166323b872dd8830896040518463ffffffff1660e01b8152600401808473ffffffffffffffffffffffffffffffffffffffff1681526020018373ffffffffffffffffffffffffffffffffffffffff1681526020018281526020019350505050602060405180830381600087803b15801561332257600080fd5b505af1158015613336573d6000803e3d6000fd5b505050506040513d602081101561334c57600080fd5b8101908080519060200190929190505050506133666110b1565b9050613371876137d4565b915085836000018181525050838360400190600281111561338e57fe5b9081600281111561339b57fe5b815250508467ffffffffffffffff16836080018181525050808360600181815250508467ffffffffffffffff1681018360a00181815250506001836101000190151590811515815250509450945094915050565b6001600860008373ffffffffffffffffffffffffffffffffffffffff1673ffffffffffffffffffffffffffffffffffffffff1681526020019081526020016000205401600860008373ffffffffffffffffffffffffffffffffffffffff1673ffffffffffffffffffffffffffffffffffffffff1681526020019081526020016000208190555050565b61348f81600080015461312b90919063ffffffff16565b600080018190555060008260ff1614156134c9576134bb8160006001015461312b90919063ffffffff16565b60006001018190555061351e565b60018260ff1614156134fb576134ed8160006002015461312b90919063ffffffff16565b60006002018190555061351d565b6135138160006003015461312b90919063ffffffff16565b6000600301819055505b5b61352661376f565b5050565b600073ffffffffffffffffffffffffffffffffffffffff168173ffffffffffffffffffffffffffffffffffffffff1614156135b0576040517f08c379a00000000000000000000000000000000000000000000000000000000081526004018080602001828103825260268152602001806138856026913960400191505060405180910390fd5b8073ffffffffffffffffffffffffffffffffffffffff16600560009054906101000a900473ffffffffffffffffffffffffffffffffffffffff1673ffffffffffffffffffffffffffffffffffffffff167f8be0079c531659141344cd1fd0a4f28419497f9722a3daafe3b4186f6b6457e060405160405180910390a380600560006101000a81548173ffffffffffffffffffffffffffffffffffffffff021916908373ffffffffffffffffffffffffffffffffffffffff16021790555050565b6000808260e0015114613687578160e0015161368d565b81606001515b9050919050565b60008183116136b5576136b083836130fe90919063ffffffff16565b6136b8565b60005b905092915050565b6000808314806136d05750600082145b156136de57600090506136ff565b60008284029050828482816136ef57fe5b04146136fa57600080fd5b809150505b92915050565b600080821415613718576000905061372b565b600082848161372357fe5b049050809150505b92915050565b60006201518063ffffffff167f000000000000000000000000000000000000000000000000000000000000000083038161376757fe5b049050919050565b427fea8ce1d041020595d75f4f48ba3378787b84e61d101465836fa54f1b338a4db560008001546000600301546000600201546000600301546040518085815260200184815260200183815260200182815260200194505050505060405180910390a2565b600061382482600860008573ffffffffffffffffffffffffffffffffffffffff1673ffffffffffffffffffffffffffffffffffffffff16815260200190815260200160002054600160f81b6119fa565b9050919050565b60405180610120016040528060008152602001600081526020016000600281111561385257fe5b81526020016000815260200160008152602001600081526020016000815260200160008152602001600015158152509056fe4f776e61626c653a206e6577206f776e657220697320746865207a65726f20616464726573734e4c433a205374616b657220646f65736e2774206861766520656e6f7567682062616c616e63654e4c433a205374616b65206973206e6f7420796574206d617475726520746f20636c61696d20526577617264a2646970667358221220f2ca0362285d03b05d5eb506a1ee6998df69cd7f32db6c86cbb7ec7bfd9a422064736f6c63430007060033",
  "immutableReferences": {
    "54": [
      {
        "length": 32,
        "start": 4277
      },
      {
        "length": 32,
        "start": 14143
      }
    ]
  },
  "source": "// SPDX-License-Identifier: NLC@2021\r\n\r\npragma solidity =0.7.6;\r\n\r\nimport \"./ownable.sol\";\r\n\r\ncontract StakingToken is Ownable {\r\n\r\n    using SafeMath for uint256;\r\n    receive() payable external {}\r\n\r\n    constructor(address _stakingTokenAddress) \r\n            Declaration(_stakingTokenAddress) {}\r\n\r\n    /**\r\n     * @notice A method for a staker to create a stake\r\n     * @param _stakedAmount amount of token to be staked.\r\n     * @param _stakeType SHORT_TERM/MEDIUM_TERM/LONG_TERM.\r\n     */\r\n    function createStake(\r\n        uint256 _stakedAmount,\r\n        StakeType _stakeType\r\n    )\r\n        external\r\n        returns (bytes16, uint256)\r\n    {\r\n        uint64 _lockDays;\r\n        if (_stakeType == StakeType.SHORT_TERM)\r\n        {\r\n            _lockDays = WEEK;\r\n        }\r\n        else if(_stakeType == StakeType.MEDIUM_TERM)\r\n        {\r\n            _lockDays = 1*MONTH;\r\n        }\r\n        else if (_stakeType == StakeType.LONG_TERM)\r\n        {\r\n            _lockDays = 3*MONTH;\r\n        }\r\n        else\r\n        {\r\n            revert('NLC: _StakeType is Invalid');\r\n        }\r\n        \r\n        (\r\n            Stake memory newStake,\r\n            bytes16 stakeID,\r\n            uint256 _startDay\r\n        ) =\r\n        _createStake(_msgSender(), _stakedAmount, _lockDays, _stakeType);\r\n\r\n        stakes[_msgSender()][stakeID] = newStake;\r\n\r\n        _increaseStakeCount(\r\n            _msgSender()\r\n        );\r\n\r\n        _increaseGlobals(\r\n            uint8(newStake.stakeType),\r\n            newStake.stakedAmount\r\n        );\r\n\r\n        stakeCaps[_stakeType]++;\r\n\r\n        emit StakeStart(\r\n            stakeID,\r\n            _msgSender(),\r\n            uint256(newStake.stakeType),\r\n            newStake.stakedAmount,\r\n            newStake.startDay,\r\n            newStake.lockDays\r\n        );\r\n\r\n        return (stakeID, _startDay);\r\n    }\r\n\r\n    /**\r\n    * @notice A method for a staker to start a stake\r\n    * @param _staker ...\r\n    * @param _stakedAmount ...\r\n    * @param _lockDays ...\r\n    * @param _stakeType ...\r\n    */\r\n    function _createStake(\r\n        address _staker,\r\n        uint256 _stakedAmount,\r\n        uint64 _lockDays,\r\n        StakeType  _stakeType\r\n    )\r\n        private\r\n        returns (\r\n            Stake memory _newStake,\r\n            bytes16 _stakeID,\r\n            uint256 _startDay\r\n        )\r\n    {\r\n        require(\r\n            STAKING_TOKEN.balanceOf(_staker) >= _stakedAmount,\r\n            \"NLC: Staker doesn't have enough balance\"\r\n        );\r\n\r\n        STAKING_TOKEN.transferFrom(\r\n            _staker,\r\n            address(this),\r\n            _stakedAmount\r\n        );\r\n\r\n        _startDay = currentDay();\r\n        _stakeID = generateStakeID(_staker);\r\n\r\n        _newStake.stakedAmount = _stakedAmount;\r\n        _newStake.stakeType = _stakeType;\r\n        _newStake.lockDays = _lockDays;\r\n        _newStake.startDay = _startDay;\r\n        _newStake.finalDay = _startDay + _lockDays;\r\n        _newStake.isActive = true;\r\n    }\r\n\r\n    /**\r\n    * @notice A method for a staker to remove a stake\r\n    * belonging to his address by providing ID of a stake.\r\n    * @param _stakeID unique bytes sequence reference to the stake\r\n    */\r\n    function endStake(\r\n        bytes16 _stakeID\r\n    )\r\n        external\r\n        returns (uint256)\r\n    {\r\n        (\r\n            Stake memory endedStake\r\n        ) =\r\n        _endStake(_msgSender(), _stakeID);\r\n\r\n        _decreaseGlobals(\r\n            uint8(endedStake.stakeType),\r\n            endedStake.stakedAmount\r\n        );\r\n\r\n        stakeCaps[endedStake.stakeType]--;\r\n\r\n        emit StakeEnd(\r\n            _stakeID,\r\n            _msgSender(),\r\n            uint256(endedStake.stakeType),\r\n            endedStake.stakedAmount,\r\n            endedStake.rewardAmount,\r\n            endedStake.closeDay\r\n        );\r\n\r\n        return endedStake.rewardAmount;\r\n    }\r\n\r\n    /**\r\n    * @notice A method for a staker to end a stake\r\n    * @param _staker ...\r\n    * @param _stakeID ...\r\n    */\r\n    function _endStake(\r\n        address _staker,\r\n        bytes16 _stakeID\r\n    )\r\n        private\r\n        returns (\r\n            Stake storage _stake\r\n        )\r\n    {\r\n        require(\r\n            stakes[_staker][_stakeID].isActive,\r\n            'NLC: Not an active stake'\r\n        );\r\n\r\n        _stake = stakes[_staker][_stakeID];\r\n        _stake.closeDay = currentDay();\r\n        _stake.rewardAmount = _calculateRewardAmount(_staker, _stakeID);\r\n\r\n        _stake.isActive = false;\r\n\r\n        STAKING_TOKEN.transfer(\r\n            _staker,\r\n            _stake.stakedAmount\r\n        );\r\n\r\n        if (_stake.rewardAmount > 0) {\r\n            REWARD_TOKEN.transferFrom(\r\n                reward_wallet,\r\n                _staker,\r\n                _stake.rewardAmount\r\n            );    \r\n        }\r\n        \r\n    }\r\n\r\n    /**\r\n    * @notice alloes to scrape Reward from active stake\r\n    * @param _stakeID unique bytes sequence reference to the stake\r\n    */\r\n    function scrapeReward(\r\n        bytes16 _stakeID\r\n    )\r\n        external\r\n        returns (\r\n            uint256 scrapeDay,\r\n            uint256 scrapeAmount\r\n        )\r\n    {\r\n        require(\r\n            stakes[_msgSender()][_stakeID].isActive,\r\n            'NLC: Not an active stake'\r\n        );\r\n\r\n        Stake memory stake = stakes[_msgSender()][_stakeID];\r\n\r\n        require(\r\n                currentDay() >= stake.finalDay,\r\n                'NLC: Stake is not yet mature to claim Reward'\r\n        );\r\n\r\n        scrapeDay = currentDay();\r\n        scrapeAmount = _calculateRewardAmount(_msgSender(), _stakeID);\r\n\r\n        scrapes[_msgSender()][_stakeID] =\r\n        scrapes[_msgSender()][_stakeID].add(scrapeAmount);\r\n        \r\n        stake.scrapeDay = scrapeDay;\r\n        stakes[_msgSender()][_stakeID] = stake;\r\n\r\n        if (scrapeAmount > 0) {\r\n            REWARD_TOKEN.transferFrom(\r\n                reward_wallet,\r\n                _msgSender(),\r\n                scrapeAmount\r\n            );\r\n        }\r\n\r\n        emit InterestScraped(\r\n            _stakeID,\r\n            _msgSender(),\r\n            scrapeAmount,\r\n            scrapeDay\r\n        );\r\n    }\r\n\r\n    function updateRewardWalletAddress(\r\n            address _walletAddress\r\n    )\r\n        external\r\n        onlyOwner\r\n        validAddress(_walletAddress)\r\n    {\r\n        reward_wallet = address(_walletAddress);\r\n    }\r\n\r\n    function checkMatureStake(\r\n        address _staker,\r\n        bytes16 _stakeID\r\n    )\r\n        external\r\n        view\r\n        returns (bool isMature)\r\n    {\r\n        Stake memory stake = stakes[_staker][_stakeID];\r\n        isMature = _isMatureStake(stake);\r\n    }\r\n\r\n    function checkStakeByID(\r\n        address _staker,\r\n        bytes16 _stakeID\r\n    )\r\n        external\r\n        view\r\n        returns \r\n    (\r\n        uint256 startDay,\r\n        uint256 lockDays,\r\n        uint256 finalDay,\r\n        uint256 closeDay,\r\n        uint256 scrapeDay,\r\n        StakeType stakeType,\r\n        uint256 stakedAmount,\r\n        uint256 rewardAmount,\r\n        bool isActive,\r\n        bool isMature\r\n    )\r\n    {\r\n        Stake memory stake = stakes[_staker][_stakeID];\r\n        startDay = stake.startDay;\r\n        lockDays = stake.lockDays;\r\n        finalDay = stake.finalDay;\r\n        closeDay = stake.closeDay;\r\n        scrapeDay = stake.scrapeDay;\r\n        stakeType = stake.stakeType;\r\n        stakedAmount = stake.stakedAmount;\r\n        rewardAmount = _calculateRewardAmount(_staker, _stakeID);\r\n        isActive = stake.isActive;\r\n        isMature = _isMatureStake(stake);\r\n    }\r\n\r\n    function getPendingReward(\r\n        address _staker,\r\n        bytes16 _stakeID\r\n    )\r\n        external\r\n        view\r\n        returns (uint256 rewardAmount)\r\n    {\r\n        require(\r\n            stakes[_staker][_stakeID].isActive,\r\n            'NLC: Not an active stake'\r\n        );\r\n        \r\n        rewardAmount = _calculateRewardAmount(_staker, _stakeID);\r\n    }\r\n        \r\n    function _calculateRewardAmount(\r\n        address _staker,\r\n        bytes16 _stakeID\r\n    )\r\n        internal view\r\n        returns \r\n    (\r\n        uint256 rewardAmount\r\n    )\r\n    {\r\n        Stake memory stake = stakes[_staker][_stakeID];\r\n        uint256 rewardDays;\r\n        \r\n        if(!_isMatureStake(stake) || \r\n                    _startingDay(stake) >= (YEAR * YEAR_4) ||\r\n                        !stake.isActive)\r\n        {\r\n            return 0;\r\n        }\r\n\r\n        if (currentYear() >= YEAR_1)\r\n        {    \r\n            if (_startingDay(stake) <= (YEAR * YEAR_1))\r\n            {\r\n                rewardDays =  _daysDiff(_startingDay(stake), YEAR*YEAR_1);\r\n                if(rewardDays != 0)\r\n                {\r\n                    rewardAmount += (stake.stakedAmount\r\n                            .mul(interest[stake.stakeType][YEAR_0])\r\n                            .mul(rewardDays)).div(YEAR*100);\r\n                    stake.scrapeDay = (YEAR * YEAR_1);\r\n                }\r\n            }\r\n\r\n            if (currentYear() >= YEAR_2 && \r\n                    _startingDay(stake) <= (YEAR * YEAR_2))\r\n            {\r\n                rewardDays =  _daysDiff(_startingDay(stake), YEAR*YEAR_2);\r\n                if(rewardDays != 0)\r\n                {\r\n                    rewardAmount += (stake.stakedAmount\r\n                            .mul(interest[stake.stakeType][YEAR_1])\r\n                            .mul(rewardDays)).div(YEAR*100);\r\n                    stake.scrapeDay = (YEAR * YEAR_2);\r\n                }\r\n            }\r\n\r\n            if (currentYear() >= YEAR_3 && \r\n                    _startingDay(stake) <= (YEAR * YEAR_3))\r\n            {\r\n                rewardDays =  _daysDiff(_startingDay(stake), YEAR*YEAR_3);\r\n                if(rewardDays != 0)\r\n                {\r\n                    rewardAmount += (stake.stakedAmount\r\n                            .mul(interest[stake.stakeType][YEAR_2])\r\n                            .mul(rewardDays)).div(YEAR*100);\r\n                    stake.scrapeDay = (YEAR * YEAR_3);\r\n                }\r\n            }\r\n            \r\n            if (currentYear() >= YEAR_4 && \r\n                    _startingDay(stake) <= (YEAR * YEAR_4))\r\n            {\r\n                rewardDays =  _daysDiff(_startingDay(stake), YEAR*YEAR_4);\r\n                if(rewardDays != 0)\r\n                {\r\n                    rewardAmount += (stake.stakedAmount\r\n                            .mul(interest[stake.stakeType][YEAR_3])\r\n                            .mul(rewardDays)).div(YEAR*100);\r\n                    stake.scrapeDay = (YEAR * YEAR_4);\r\n                    return rewardAmount;\r\n                }\r\n            }\r\n\r\n        }\r\n\r\n        rewardDays = _daysDiff(_startingDay(stake), currentDay());\r\n        if(rewardDays != 0)\r\n        {\r\n            rewardAmount += (stake.stakedAmount\r\n                            .mul(interest[stake.stakeType][currentYear()])\r\n                            .mul(rewardDays)).div(YEAR*100);\r\n        }\r\n    }\r\n\r\n    function getStakeCount() \r\n        external view \r\n        returns \r\n    (\r\n        uint256 STStakeCount, \r\n        uint256 MTStakeCount,\r\n        uint256 LTStakeCount\r\n    )\r\n    {\r\n        STStakeCount = stakeCaps[StakeType.SHORT_TERM];\r\n        MTStakeCount = stakeCaps[StakeType.MEDIUM_TERM];\r\n        LTStakeCount = stakeCaps[StakeType.LONG_TERM];\r\n    }\r\n\r\n    function getTotalStakedToken()\r\n        external    \r\n        view \r\n        returns (uint256) \r\n    {\r\n        return globals.totalStaked;\r\n    }\r\n}",
  "sourcePath": "C:/Users/Dhaval/eth/NLC_staking/nlc/src/contracts/StakingToken.sol",
  "compiler": {
    "name": "solc",
    "version": "0.7.6+commit.7338295f.Emscripten.clang"
  },
  "schemaVersion": "3.3.3",
  "updatedAt": "2021-06-10T05:02:06.668Z",
  "devdoc": {
    "kind": "dev",
    "methods": {
      "createStake(uint256,uint8)": {
        "params": {
          "_stakeType": "SHORT_TERM/MEDIUM_TERM/LONG_TERM.",
          "_stakedAmount": "amount of token to be staked."
        }
      },
      "endStake(bytes16)": {
        "params": {
          "_stakeID": "unique bytes sequence reference to the stake"
        }
      },
      "owner()": {
        "details": "Returns the address of the current owner."
      },
      "renounceOwnership()": {
        "details": "Leaves the contract without owner. It will not be possible to call `onlyOwner` functions anymore. Can only be called by the current owner. NOTE: Renouncing ownership will leave the contract without an owner, thereby removing any functionality that is only available to the owner."
      },
      "scrapeReward(bytes16)": {
        "params": {
          "_stakeID": "unique bytes sequence reference to the stake"
        }
      },
      "transferOwnership(address)": {
        "details": "Transfers ownership of the contract to a new account (`newOwner`). Can only be called by the current owner."
      }
    },
    "version": 1
  },
  "userdoc": {
    "kind": "user",
    "methods": {
      "createStake(uint256,uint8)": {
        "notice": "A method for a staker to create a stake"
      },
      "endStake(bytes16)": {
        "notice": "A method for a staker to remove a stake belonging to his address by providing ID of a stake."
      },
      "scrapeReward(bytes16)": {
        "notice": "alloes to scrape Reward from active stake"
      }
    },
    "version": 1
  }
}